:020000040800F2
:100000000050002099310008993000089B3000080A
:100010009D3000089F300008A1300008000000005B
:10002000000000000000000000000000A3300008F5
:10003000A530000800000000A7300008A930000823
:10004000E1310008E1310008E1310008E131000848
:10005000E1310008E1310008E1310008E131000838
:10006000E1310008E1310008E1310008E131000828
:10007000E1310008E1310008E1310008E131000818
:10008000E1310008E1310008E1310008E131000808
:10009000E1300008E1310008E1310008E1310008F9
:1000A000E1310008E1310008E1310008E1310008E8
:1000B000E131000841310008E1310008E131000878
:1000C000E1310008E1310008E1310008E1310008C8
:1000D000E1310008E1310008E1310008E1310008B8
:1000E000E1310008E1310008E131000800000000C2
:1000F0000000000000000000000000000000000000
:0C01000000000000000000005FF808F1A3
:1001100010B5054C237833B9044B13B10448AFF341
:1001200000800123237010BD140000200000000097
:100130003C32000808B5034B1BB103490348AFF339
:10014000008008BD00000000180000203C320008BC
:1001500081F0004102E000BF83F0004330B54FEA78
:1001600041044FEA430594EA050F08BF90EA020FE5
:100170001FBF54EA000C55EA020C7FEA645C7FEA78
:10018000655C00F0E2804FEA5454D4EB5555B8BF9B
:100190006D420CDD2C4480EA020281EA030382EA0C
:1001A000000083EA010180EA020281EA0303362D9E
:1001B00088BF30BD11F0004F4FEA01314FF4801C71
:1001C0004CEA113102D0404261EB410113F0004F83
:1001D0004FEA03334CEA133302D0524263EB43033A
:1001E00094EA050F00F0A780A4F10104D5F1200ED8
:1001F0000DDB02FA0EFC22FA05F2801841F1000133
:1002000003FA0EF2801843FA05F359410EE0A5F106
:1002100020050EF1200E012A03FA0EFC28BF4CF037
:10022000020C43FA05F3C01851EBE37101F00045ED
:1002300007D54FF0000EDCF1000C7EEB00006EEBFA
:100240000101B1F5801F1BD3B1F5001F0CD3490884
:100250005FEA30004FEA3C0C04F101044FEA4452DB
:1002600012F5800F80F09A80BCF1004F08BF5FEA62
:10027000500C50F1000041EB045141EA050130BD42
:100280005FEA4C0C404141EB010111F4801FA4F1E5
:100290000104E9D191F0000F04BF01460020B1FA3A
:1002A00081F308BF2033A3F10B03B3F120020CDA72
:1002B0000C3208DD02F1140CC2F10C0201FA0CF050
:1002C00021FA02F10CE002F11402D8BFC2F1200CB5
:1002D00001FA02F120FA0CFCDCBF41EA0C0190406B
:1002E000E41AA2BF01EB0451294330BD6FEA0404B4
:1002F0001F3C1CDA0C340EDC04F11404C4F120029F
:1003000020FA04F001FA02F340EA030021FA04F3B0
:1003100045EA030130BDC4F10C04C4F1200220FA07
:1003200002F001FA04F340EA0300294630BD21FA45
:1003300004F0294630BD94F0000F83F4801306BF0B
:1003400081F480110134013D4EE77FEA645C18BFFF
:100350007FEA655C29D094EA050F08BF90EA020F96
:1003600005D054EA000C04BF1946104630BD91EA8E
:10037000030F1EBF0021002030BD5FEA545C05D191
:100380004000494128BF41F0004130BD14F58004D0
:100390003CBF01F5801130BD01F0004545F0FE4144
:1003A00041F470014FF0000030BD7FEA645C1ABF79
:1003B000194610467FEA655C1CBF0B46024650EAB0
:1003C000013406BF52EA033591EA030F41F40021DC
:1003D00030BD00BF90F0000F04BF0021704730B562
:1003E0004FF4806404F132044FF000054FF0000137
:1003F00050E700BF90F0000F04BF0021704730B5F8
:100400004FF4806404F1320410F0004548BF4042CC
:100410004FF000013EE700BF42004FEAE2014FEA21
:1004200031014FEA02701FBF12F07F4393F07F4FFC
:1004300081F06051704732F07F4208BF704793F0FF
:100440007F4F04BF41F40021704730B54FF4607412
:1004500001F0004521F000411CE700BF50EA010215
:1004600008BF704730B54FF000050AE050EA0102BE
:1004700008BF704730B511F0004502D5404261EB2E
:1004800041014FF4806404F132045FEA915C3FF46F
:10049000D8AE4FF003025FEADC0C18BF03325FEA0C
:1004A000DC0C18BF033202EBDC02C2F1200300FABD
:1004B00003FC20FA02F001FA03FE40EA0E0021FAE2
:1004C00002F11444BDE600BF70B54FF0FF0C4CF4D0
:1004D000E06C1CEA11541DBF1CEA135594EA0C0F82
:1004E00095EA0C0F00F0DEF82C4481EA030621EABD
:1004F0004C5123EA4C5350EA013518BF52EA0335F8
:1005000041F4801143F4801338D0A0FB02CE4FF0A9
:100510000005E1FB02E506F00042E0FB03E54FF0D9
:100520000006E1FB03569CF0000F18BF4EF0010ED1
:10053000A4F1FF04B6F5007F64F5407404D25FEACD
:100540004E0E6D4146EB060642EAC62141EA555180
:100550004FEAC52040EA5E504FEACE2EB4F1FD0CC2
:1005600088BFBCF5E06F1ED8BEF1004F08BF5FEA40
:10057000500E50F1000041EB045170BD06F00046F2
:1005800046EA010140EA020081EA0301B4EB5C049F
:10059000C2BFD4EB0C0541EA045170BD41F4801197
:1005A0004FF0000E013C00F3AB8014F1360FDEBFBC
:1005B000002001F0004170BDC4F10004203C35DA98
:1005C0000C341BDC04F11404C4F1200500FA05F31B
:1005D00020FA04F001FA05F240EA020001F00042BC
:1005E00021F0004110EBD37021FA04F642EB060132
:1005F0005EEA430E08BF20EAD37070BDC4F10C045C
:10060000C4F1200500FA04F320FA05F001FA04F21F
:1006100040EA020001F0004110EBD37041F100010B
:100620005EEA430E08BF20EAD37070BDC4F1200516
:1006300000FA05F24EEA020E20FA04F301FA05F27E
:1006400043EA020321FA04F001F0004121FA04F226
:1006500020EA020000EBD3705EEA430E08BF20EAF6
:10066000D37070BD94F0000F0FD101F00046400030
:1006700041EB010111F4801F08BF013CF7D041EAB2
:10068000060195F0000F18BF704703F000465200B6
:1006900043EB030313F4801F08BF013DF7D043EA87
:1006A0000603704794EA0C0F0CEA135518BF95EA3D
:1006B0000C0F0CD050EA410618BF52EA4306D1D1C4
:1006C00081EA030101F000414FF0000070BD50EAE3
:1006D000410606BF1046194652EA430619D094EA6D
:1006E0000C0F02D150EA013613D195EA0C0F05D157
:1006F00052EA03361CBF104619460AD181EA0301AB
:1007000001F0004141F0FE4141F470014FF0000062
:1007100070BD41F0FE4141F4780170BD70B54FF0FD
:10072000FF0C4CF4E06C1CEA11541DBF1CEA13557D
:1007300094EA0C0F95EA0C0F00F0A7F8A4EB05045F
:1007400081EA030E52EA03354FEA013100F0888056
:100750004FEA03334FF0805545EA131343EA12631F
:100760004FEA022245EA111545EA10654FEA0026D4
:100770000EF000419D4208BF964244F1FD0404F58D
:10078000407402D25B084FEA3202B61A65EB0305E9
:100790005B084FEA32024FF480104FF4002CB6EBA6
:1007A000020E75EB030E22BFB61A754640EA0C0026
:1007B0005B084FEA3202B6EB020E75EB030E22BF66
:1007C000B61A754640EA5C005B084FEA3202B6EBA7
:1007D000020E75EB030E22BFB61A754640EA9C0066
:1007E0005B084FEA3202B6EB020E75EB030E22BF36
:1007F000B61A754640EADC0055EA060E18D04FEAF4
:10080000051545EA16754FEA06164FEAC30343EA93
:1008100052734FEAC2025FEA1C1CC0D111F4801F60
:100820000BD141EA00014FF000004FF0004CB6E759
:1008300011F4801F04BF01430020B4F1FD0C88BFF8
:10084000BCF5E06F3FF6AFAEB5EB030C04BFB6EB03
:10085000020C5FEA500C50F1000041EB045170BDF6
:100860000EF0004E4EEA113114EB5C04C2BFD4EB23
:100870000C0541EA045170BD41F480114FF0000EA7
:10088000013C90E645EA060E8DE60CEA135594EA23
:100890000C0F08BF95EA0C0F3FF43BAF94EA0C0F26
:1008A0000AD150EA01347FF434AF95EA0C0F7FF49B
:1008B00025AF104619462CE795EA0C0F06D152EAEF
:1008C00003353FF4FDAE1046194622E750EA4106D3
:1008D00018BF52EA43067FF4C5AE50EA41047FF4E4
:1008E0000DAF52EA43057FF4EBAE12E74FF0FF3C49
:1008F00006E000BF4FF0010C02E000BF4FF0010C1A
:100900004DF804CD4FEA410C7FEA6C5C4FEA430C92
:1009100018BF7FEA6C5C1BD001B050EA410C0CBFE1
:1009200052EA430C91EA030F02BF90EA020F002043
:10093000704710F1000F91EA030F58BF994208BFAA
:1009400090422CBFD8176FEAE37040F00100704767
:100950004FEA410C7FEA6C5C02D150EA013C07D1BE
:100960004FEA430C7FEA6C5CD6D152EA033CD3D009
:100970005DF8040B704700BF8446104662468C4603
:100980001946634600E000BF01B5FFF7B7FF002836
:1009900048BF10F1000F01BD4DF808EDFFF7F4FF5F
:1009A0000CBF012000205DF808FB00BF4DF808EDEA
:1009B000FFF7EAFF34BF012000205DF808FB00BF0D
:1009C0004DF808EDFFF7E0FF94BF012000205DF82F
:1009D00008FB00BF4DF808EDFFF7CEFF94BF0120E4
:1009E00000205DF808FB00BF4DF808EDFFF7C4FFDD
:1009F00034BF012000205DF808FB00BF80F00040FC
:100A000002E000BF81F0004142001FBF5FEA4103E6
:100A100092EA030F7FEA226C7FEA236C6AD04FEAE6
:100A20001262D2EB1363C1BFD2184140484041402B
:100A3000B8BF5B42192B88BF704710F0004F40F4DD
:100A4000000020F07F4018BF404211F0004F41F4F9
:100A5000000121F07F4118BF494292EA030F3FD0C5
:100A6000A2F1010241FA03FC10EB0C00C3F12003D8
:100A700001FA03F100F0004302D5494260EB400067
:100A8000B0F5000F13D3B0F1807F06D340084FEAD2
:100A9000310102F10102FE2A51D2B1F1004F40EBC7
:100AA000C25008BF20F0010040EA0300704749002F
:100AB00040EB000010F4000FA2F10102EDD1B0FAFA
:100AC00080FCACF1080CB2EB0C0200FA0CF0AABFEF
:100AD00000EBC25052421843BCBFD040184370478D
:100AE00092F0000F81F4000106BF80F40000013293
:100AF000013BB5E74FEA41037FEA226C18BF7FEA6A
:100B0000236C21D092EA030F04D092F0000F08BFAB
:100B10000846704790EA010F1CBF0020704712F092
:100B20007F4F04D1400028BF40F00040704712F1D1
:100B300000723CBF00F50000704700F0004343F036
:100B4000FE4040F4000070477FEA226216BF08466C
:100B50007FEA23630146420206BF5FEA412390EA2F
:100B6000010F40F4800070474FF0000304E000BF25
:100B700010F0004348BF40425FEA000C08BF7047D6
:100B800043F0964301464FF000001CE050EA01029A
:100B900008BF70474FF000030AE000BF50EA0102AF
:100BA00008BF704711F0004302D5404261EB41019C
:100BB0005FEA010C02BF84460146002043F0B643C1
:100BC00008BFA3F18053A3F50003BCFA8CF2083AE6
:100BD000A3EBC25310DB01FA02FC634400FA02FCEF
:100BE000C2F12002BCF1004F20FA02F243EB0200F6
:100BF00008BF20F00100704702F1200201FA02FC58
:100C0000C2F1200250EA4C0021FA02F243EB02004A
:100C100008BF20EADC7070474FF0FF0C1CEAD0528E
:100C20001EBF1CEAD15392EA0C0F93EA0C0F6FD04F
:100C30001A4480EA010C400218BF5FEA41211ED02D
:100C40004FF0006343EA501043EA5111A0FB013119
:100C50000CF00040B1F5000F3EBF490041EAD371EE
:100C60005B0040EA010062F17F02FD2A1DD8B3F16A
:100C7000004F40EBC25008BF20F00100704790F0D9
:100C8000000F0CF0004C08BF49024CEA502040EA2B
:100C900051207F3AC2BFD2F1FF0340EAC2507047F1
:100CA00040F400004FF00003013A5DDC12F1190F2F
:100CB000DCBF00F000407047C2F10002410021FAA1
:100CC00002F1C2F1200200FA02FC5FEA310040F1B9
:100CD000000053EA4C0308BF20EADC70704792F032
:100CE000000F00F0004C02BF400010F4000F013A6A
:100CF000F9D040EA0C0093F0000F01F0004C02BF65
:100D0000490011F4000F013BF9D041EA0C018FE7D3
:100D10000CEAD15392EA0C0F18BF93EA0C0F0AD0D9
:100D200030F0004C18BF31F0004CD8D180EA0100FF
:100D300000F00040704790F0000F17BF90F0004F98
:100D4000084691F0000F91F0004F14D092EA0C0F7A
:100D500001D142020FD193EA0C0F03D14B0218BF0D
:100D6000084608D180EA010000F0004040F0FE4053
:100D700040F40000704740F0FE4040F440007047EF
:100D80004FF0FF0C1CEAD0521EBF1CEAD15392EA6E
:100D90000C0F93EA0C0F69D0A2EB030280EA010C5E
:100DA00049024FEA402037D04FF0805343EA1111F7
:100DB00043EA10130CF000408B4238BF5B0042F155
:100DC0007D024FF4000C8B4224BF5B1A40EA0C00FA
:100DD000B3EB510F24BFA3EB510340EA5C00B3EB2C
:100DE000910F24BFA3EB910340EA9C00B3EBD10F1A
:100DF00024BFA3EBD10340EADC001B0118BF5FEA6C
:100E00001C1CE0D1FD2A3FF650AF8B4240EBC25094
:100E100008BF20F0010070470CF0004C4CEA502055
:100E20007F32C2BFD2F1FF0340EAC250704740F4A4
:100E300000004FF00003013A37E792F0000F00F096
:100E4000004C02BF400010F4000F013AF9D040EA14
:100E50000C0093F0000F01F0004C02BF490011F4A8
:100E6000000F013BF9D041EA0C0195E70CEAD153A0
:100E700092EA0C0F08D142027FF47DAF93EA0C0F87
:100E80007FF470AF084676E793EA0C0F04D14B026B
:100E90003FF44CAF08466EE730F0004C18BF31F01D
:100EA000004CCAD130F000427FF45CAF31F0004317
:100EB0007FF43CAF5FE700BF4FF0FF3C06E000BFB0
:100EC0004FF0010C02E000BF4FF0010C4DF804CDD3
:100ED0004FEA40024FEA41037FEA226C18BF7FEAE3
:100EE000236C11D001B052EA530C18BF90EA010FE5
:100EF00058BFB2EB030088BFC81738BF6FEAE17074
:100F000018BF40F0010070477FEA226C02D15FEA0F
:100F1000402C05D17FEA236CE4D15FEA412CE1D07B
:100F20005DF8040B704700BF844608466146FFE742
:100F30000FB5FFF7C9FF002848BF10F1000F0FBD24
:100F40004DF808EDFFF7F4FF0CBF012000205DF81D
:100F500008FB00BF4DF808EDFFF7EAFF34BF0120A2
:100F600000205DF808FB00BF4DF808EDFFF7E0FF3B
:100F700094BF012000205DF808FB00BF4DF808ED8C
:100F8000FFF7D2FF94BF012000205DF808FB00BFEF
:100F90004DF808EDFFF7C8FF34BF012000205DF8D1
:100FA00008FB00BF42000ED2B2F1FE4F0BD34FF050
:100FB0009E03B3EB126209D44FEA002343F00043CF
:100FC00023FA02F070474FF00000704712F1610FF2
:100FD00001D1420202D14FF0FF3070474FF00000C4
:100FE000704700BF38B50E4B054618784FF47A733A
:100FF000B3FBF0F30B4A1068B0FBF3F000F090FB8A
:10100000044658B90F2D09D8024629464FF0FF3043
:1010100000F046FB2046044B1D6038BD0120FCE774
:10102000000000201000002004000020074A08B53E
:101030001368032043F01003136000F01FFB00202F
:10104000FFF7D0FF01F05CFF002008BD0020024048
:10105000034A044B11681B780B441360704700BFB0
:101060003C00002000000020014B1868704700BFC2
:101070003C00002038B50446FFF7F6FF0546631C28
:101080001EBF044B1B78E418FFF7EEFF401BA04285
:10109000FAD338BD0000002038B5044600286ED0D1
:1010A00090F820300BB901F04DFF2268136823F04F
:1010B00002031360FFF7D8FF054623685A689107BB
:1010C00051D41A6842F001021A60FFF7CDFF0546BD
:1010D00023685A68D20754D5227E0020012A1A6854
:1010E0000CBF42F0800222F080021A60627E012A68
:1010F0001A680CBF42F0400222F040021A60A27E41
:10110000012A1A680CBF42F0200222F020021A6065
:10111000E27E012A1A680CBF22F0100242F010028F
:101120001A60227F012A1A680CBF42F0080222F0DE
:1011300008021A60627F012A1A680CBF42F004029A
:1011400022F004021A60D4E902210A4321690A4309
:1011500061690A43616801390A43DA610123606207
:1011600084F8203038BDFFF77FFF401B0A28A4D940
:10117000636A43F400336362052384F8203001205E
:10118000F0E7FFF771FF401B0A28A1D9F0E790F8BC
:10119000203070B5013B012B5FD801240368D3F8E0
:1011A000002242F00102C3F800224A69D3F81C521F
:1011B00002F01F0004FA00F0C4432540C3F81C529B
:1011C000CD6985BBD3F80C52CE682540C3F80C52CC
:1011D0008D8803EBC20245EA0645C2F840528E688C
:1011E0000D8845EA0645C2F844528A696ABBD3F8BD
:1011F00004222240C3F804220A6952BBD3F8142205
:101200002240C3F814220A6A012A02BFD3F81C2222
:101210001043C3F81C020020D3F8002222F0010280
:10122000C3F8002270BD012DDFD1D3F80C520E6837
:101230000543C3F80C528D8803EBC20245EA06450C
:10124000C2F840528E688D89CBE7D3F8042202435E
:10125000D0E7D3F814220243D3E7436A43F4802350
:1012600043620120DEE738B590F820300446012BB8
:101270001FD10223026880F82030136823F0010395
:101280001360FFF7F1FE05462368586810F001006F
:1012900001D1606238BDFFF7E7FE401B0A28F3D991
:1012A000636A43F400336362052384F8203001202D
:1012B000F0E7436A43F400234362F8E7F0B590F89F
:1012C00020500668013D012DB46840D814F0E05F5D
:1012D00039D0C4F30164032C4FF0010505D1436AF2
:1012E00043F400034362012027E0A5401D60D1E9DB
:1012F000020704F1180308BB086847EA40501B01C5
:10130000F050086924013319C3F884010020097DD5
:101310003444012902BFD3F8841141F48071C3F829
:1013200084115168C4F88C111268C4F88821D3F86C
:10133000802142F00102C3F88021F0BD4D6838439E
:1013400040EAC500DBE7436A43F40013CAE7436A97
:1013500043F48023C6E7F0B590F82040013C012C0F
:101360006BD8066841B9F468A40707D1436A43F40F
:1013700000134362012055E03469F5E70C0135198B
:10138000D5F8B07107F004079760002F4BD1D5F85E
:10139000B0717F0D1760D5F8B0712644C7F34007D0
:1013A000D760D5F8B47107F00F071761D5F8B4719D
:1013B000D5F8B451C7F307272D0C97615561D6F8BE
:1013C000B8211A7002682244D2F8B821120A5A7061
:1013D00002682244D2F8B821120C9A7002682244A2
:1013E000D2F8B821120EDA7002682244D2F8BC2179
:1013F0001A7102682244D2F8BC21120A5A7102689A
:101400002244D2F8BC21120C9A7102681444D4F818
:10141000BC21120EDA71036851B9DA6842F0200279
:10142000DA600020F0BDD5F8B071FF085760B2E770
:101430001A6942F020021A61F3E7436A43F48023F9
:1014400097E790F82030013B012B05D80268002077
:101450005369194351617047436A43F480234362DF
:10146000012070477047704770477047704770475A
:1014700070477047704770477047704770472DE955
:10148000F84F036805465E69D3F8049016F001042E
:101490009F68D3F80CB0D3F810A0D3F8188022D0EE
:1014A00017F0010407D00122B9079A6040F1A38028
:1014B000FFF7D8FF0024FB0509D54FF480722B6895
:1014C000B8059A6040F1A5802846FFF7CCFFFB03E2
:1014D00009D54FF480322B68B8039A6040F1A78099
:1014E0002846FFF7C1FF330707D51BF0100F1FBFBA
:1014F00010222B6844F40074DA60770708D51BF0DB
:10150000080F05D008222B682846DA60FFF7B1FFE4
:10151000B00706D52B68DB68990702D02846FFF78D
:10152000A7FF720607D51AF0100F1FBF10222B68F5
:1015300044F480641A61B30608D51AF0080F05D088
:1015400008222B6828461A61FFF795FFF70606D593
:101550002B681B69980702D02846FFF78BFFB10361
:1015600008D519F0100F05D010222B6828465A60B4
:10157000FFF782FFF20308D519F0080F05D0082203
:101580002B6828465A60FFF778FF33042AD519F0F4
:10159000040F2A6824D0F70504D518F0010F18BFEE
:1015A00044F00104B00504D518F0020F18BF44F050
:1015B0000204710504D518F0040F18BF44F00404A8
:1015C00033050DD518F070030AD0302B4CD03CD821
:1015D000102B43D0202B44D0936923F070039361E8
:1015E000042353602CB16B6A28461C436C62FFF7DE
:1015F00045FFBDE8F88F7A0705D417F0080405D138
:10160000FFF733FF57E74FF4006454E74FF480547B
:1016100051E7790502D544F4005458E73A0502D55C
:1016200044F4804453E72846FFF720FF4FE779034F
:1016300002D544F4004456E73A0302D544F480341A
:1016400051E72846FFF713FF4DE7502B0FD0602BD3
:1016500010D0402BC0D144F04004BDE744F0080452
:10166000BAE744F01004B7E744F02004B4E744F0CC
:101670008004B1E744F48074AEE70000074A00023A
:10168000D36800F4E06023F4E0631B041B0C43F018
:10169000BF6343F400330343D360704700ED00E0C1
:1016A000174B70B5DC684FF0FF36C4F30224C4F169
:1016B0000705042D04F1040328BF0425062B98BF59
:1016C000002406FA05F388BF033C21EA0303A34084
:1016D00006FA04F422EA0404002843EA0403A8BF3B
:1016E00000F160404FEA0313B8BF064ADBB2B5BF52
:1016F00000F00F0000F56140135480F8003370BD16
:1017000000ED00E014ED00E00123420900F01F00AD
:1017100003FA00F0014B43F82200704700E100E0BB
:101720000138B0F1807F0AD2F021064B064A58609A
:1017300082F823100020072298601A607047012069
:10174000704700BF10E000E000ED00E02DE9F74F2A
:1017500000221646654BDFF8A4C1DFF8A4E14FF084
:1017600001080C6808FA06F808EA0404A0457ED1CE
:101770004D68122D00F0AE8000F28780022D00F03F
:10178000A6807BD8002D00F08D80012D00F09D807B
:101790004FF00F09FF2C93BF824606F18045083DAC
:1017A000D0F800B092BFB500D0F804B0AD0009FA8F
:1017B00005F82BEA080802FA05F588BF00F1040ACB
:1017C00048EA0505CAF80050D1F804A01AF0805F75
:1017D0004DD0474F26F00308BD6908F1804845F019
:1017E0000105BD61BD6908F5803805F00105019569
:1017F00006F0030B019D4FEA8B0BD8F8085009FA4D
:101800000BF925EA09093B4DA84268D005F580652A
:10181000A84266D005F58065A84264D005F58065CC
:10182000A8420CBF0325042505FA0BF545EA090576
:10183000C8F808501D681AF4803F14BF2543A5431B
:101840001D605D681AF4003F14BF2543A5435D6029
:101850009D681AF4801F14BF2543A5439D60DD6871
:101860001AF4001F14BF2C4325EA0404DC6001367F
:10187000102E7FF474AF03B0BDE8F08F032D22D09B
:10188000112D85D1CA68043282E71B4FBD4209D0B1
:1018900012D8DFF870904D4504D009F580394D45D8
:1018A0007FF476AF8A68C2B1012A0CBFC0F81080FD
:1018B000C0F8148008226BE76545F3D07545F1D078
:1018C000DFF84490EBE7002262E7CA6860E7CA6885
:1018D00008325DE7CA680C325AE7042258E700254F
:1018E000A2E70125A0E702259EE700BF0004014012
:1018F00000100240000801400000211000003110DB
:101900000000321000001110000022100AB1016125
:1019100070470904FBE7000003682DE9F341DB078A
:10192000054610D42B689F075ED42B68190700F179
:1019300095802B685A0700F1BF80EA69002A40F0C1
:101940002D81002014E0904C636803F00C03042BFD
:1019500007D0636803F00C03082B0CD16368DE0327
:1019600009D523689C03DDD56B68002BDAD10120F3
:1019700002B0BDE8F0816B68B3F5803F10D12368F9
:1019800043F480332360FFF76FFB06462368980318
:10199000C8D4FFF769FB801B6428F7D90320E7E769
:1019A0009BB9236823F480332360236823F48023C6
:1019B0002360FFF759FB064623689903B2D5FFF76A
:1019C00053FB801B6428F7D9E8E7B3F5A02F236801
:1019D00003D143F480232360D1E723F480332360D1
:1019E000236823F48023CDE7674C636813F00C0F62
:1019F00007D0636803F00C03082B10D16368DA0387
:101A00000DD423689B0702D52B69012BAFD1236826
:101A10006A6923F0F80343EAC203236085E72A6971
:101A20005A4B6AB101221A60FFF71EFB0646236873
:101A30009F07ECD4FFF718FB801B0228F7D9ADE70E
:101A40001A60FFF711FB0646236898077FF56DAF14
:101A5000FFF70AFB801B0228F6D99FE7AA694A4CC8
:101A60004B4BDAB101221A60FFF7FEFA0646636AB1
:101A70009B070DD54FF4FA52464B1B68B3FBF2F3AC
:101A8000019300BF019B5A1E0192002BF9D150E730
:101A9000FFF7EAFA801B0228E9D97FE71A60FFF70F
:101AA000E3FA0646636A9F077FF543AFFFF7DCFA68
:101AB000801B0228F6D971E7334CE369D80024D49F
:101AC0000127E36943F08053E361E36903F0805346
:101AD0000093009B304E3368D90518D5EB68012B75
:101AE00026D1236A43F001032362FFF7BDFA41F2D6
:101AF00088368046236A9B073FD5002F3FF41DAFF1
:101B0000E36923F08053E36117E70027E2E73368D6
:101B100043F480733360FFF7A7FA80463368DA0531
:101B2000DCD4FFF7A1FAA0EB08006428F6D935E76A
:101B3000ABB9236A41F2883823F001032362236A98
:101B400023F004032362FFF78FFA0646236A9807FF
:101B5000D3D5FFF789FA801B4045F7D91EE7052B3F
:101B6000236A03D143F004032362BAE723F001039D
:101B70002362236A23F00403B6E7FFF775FAA0EBAC
:101B80000800B042B6D909E7001002400000424206
:101B9000800442421000002000700040224C636824
:101BA00003F00C03082B3FF4E2AE00231F4E022A81
:101BB00033602BD1FFF758FA0746236899011FD4E9
:101BC0002B6AB3F5803F05D16268A96822F4003220
:101BD0000A436260696A62680B4322F47412134319
:101BE000636001233360FFF73FFA054623689A01DB
:101BF0003FF5A7AEFFF738FA401B0228F6D9CDE62D
:101C0000FFF732FAC01B0228D7D9C7E6FFF72CFA34
:101C1000054623689B017FF594AEFFF725FA401B2C
:101C20000228F6D9BAE600BF001002406000424226
:101C300030B51A4B87B002AC03F110052246186884
:101C40005968083303C2AB421446F7D140F201236E
:101C50001349ADF804304B6803F00C02042A1BD082
:101C6000082A02D00F4807B030BDC3F3834206A84C
:101C70000244DB0312F8102C0BD54B680A48C3F35F
:101C80004043504306AA134413F8143CB0FBF3F04E
:101C9000E9E706485043E6E70348E4E75432000822
:101CA0000010024000127A000024F40000093D00F8
:101CB000534A2DE9F0411368054603F007038B42B0
:101CC0000E4628D329688C0732D4CA0745D44C4A1B
:101CD000136803F00703B3427FD82A68494C12F017
:101CE000040F40F08580130706D563682A6923F442
:101CF000605343EAC2036360FFF79AFF6368424A96
:101D0000C3F30313D35CD840404B18600020FFF7A7
:101D100069F900200AE0136823F007030B431360FE
:101D2000136803F007038B42CCD00120BDE8F0819B
:101D3000344B11F0040F1EBF5A6842F4E0625A603F
:101D4000080742BF5A6842F460525A605A68A8684D
:101D500022F0F00202435A60B7E76A68294C012A70
:101D600023681BD113F4003FDFD0636841F2883849
:101D700023F0030313436360FFF776F96B680746AC
:101D8000012B13D1636803F00C03042B9FD0FFF7E2
:101D90006BF9C01B4045F5D90320C7E7022A02D1E1
:101DA00013F0007FE0E713F0020FDDE7022B0FD105
:101DB000636803F00C03082B89D0FFF755F9C01BAB
:101DC0004045F5D9E8E7FFF74FF9C01B4045E3D898
:101DD000636813F00C0FF6D179E7136823F007035B
:101DE00033431360136803F00703B3429DD174E7D4
:101DF0006368E96823F4E0630B43636073E700BF43
:101E00000020024000100240643200081000002050
:101E1000036A70B523F001030362036A44688269B0
:101E20000D6822F073022A438D6823F002032B43CE
:101E30000A4DA8420BD1CD6823F008032B4324F4AC
:101E40004074D1E90556354323F004032C43446024
:101E500082614A684263036270BD00BF002C01408A
:101E6000036A70B523F480730362036A4468C2692D
:101E70000D6822F073022A438D6823F4007343EA4D
:101E800005230B4DA8420DD1CD6823F4006343EA2E
:101E9000052324F44054D1E90556354323F48063E7
:101EA00044EA05144460C2614A68C263036270BDBB
:101EB000002C0140036A30B523F480530362036AA7
:101EC0004468C2690D6822F4E64242EA05228D6840
:101ED00023F4005343EA0533064DA84202BF4D697F
:101EE00024F4804444EA85144460C2614A68026470
:101EF000036230BD002C0140704790F83C3070B553
:101F0000012B4FF002031CD0012280F83D30036802
:101F100080F83C209A6822F47F4222F077029A608F
:101F20000A68402A79D019D8102A00F093800AD87C
:101F3000002A00F08980012380F83D30002380F8DA
:101F40003C30184670BD202A00F08A80302AF2D139
:101F50009A6822F0700242F0370236E0702A36D0DA
:101F60001BD8502A42D0602AE5D11C6A4D6824F063
:101F70001004CE681C6299691A6A21F4704122F03B
:101F8000A00242EA051241EA063199611A629A6892
:101F900022F0700242F0670217E0B2F5805F11D0C4
:101FA000B2F5005FC7D1D1E901529C68C9682A43E4
:101FB00024F47F4442EA012222439A609A6842F460
:101FC000804202E09A6822F007029A60B3E79C68B8
:101FD000D1E90152C9682A4324F47F4442EA01222C
:101FE00022439A609A6842F07702EEE74C68CE6826
:101FF000196A1D6A21F00A0125F001051D629A691E
:10200000214322F0F00242EA06129A6119629A68AC
:1020100022F0700242F05702D7E74C68CE68196A86
:102020001D6A21F00A0125F001051D629A6921430C
:1020300022F0F00242EA06129A6119629A6822F0CE
:10204000700242F04702C0E79A6822F0700242F044
:102050000702BAE79A6822F0700242F01702B4E76A
:102060009A6822F0700242F02702AEE790F83C3006
:10207000012B1CD00C2918D8DFE801F0071717171F
:102080000E17171711171717140003685B6B002240
:1020900080F83C201846704703689B6BF7E703689D
:1020A000DB6BF4E703681B6CF1E70023EFE7022327
:1020B000F0E77047704770477047036810B51A69BA
:1020C000044691070ED5DA6892070BD56FF002022D
:1020D0001A6101229B6902779B0777D000F0E2FA30
:1020E0000023237723681A69500710D5DA6851074F
:1020F0000DD56FF004021A6102229B69227713F456
:10210000407F204668D000F0CDFA00232377236873
:102110001A6912070FD5DA6810070CD56FF008029C
:102120001A610422DB692277990720465AD000F011
:10213000B9FA0023237723681A69D20610D5DA6822
:10214000D0060DD56FF010021A610822DB692277E4
:1021500013F4407F20464BD000F0A4FA00232377ED
:1021600023681A69D10708D5DA68D20705D56FF058
:10217000010220461A61FFF79CFF23681A691006C6
:1021800008D5DA68110605D56FF0800220461A617D
:1021900000F069FA23681A69520608D5DA68500611
:1021A00005D56FF0400220461A61FFF785FF2368CE
:1021B0001A69910622D5DA6892061FD56FF02002BF
:1021C0002046BDE810401A6100F04CBAFFF772FFDC
:1021D0002046FFF770FF83E7FFF76CFF2046FFF70D
:1021E0006AFF92E7FFF766FF2046FFF764FFA0E76C
:1021F000FFF760FF2046FFF75EFFAFE710BD00006E
:102200001A4A036890420AD0B0F1804F07D0A2F575
:102210009432904203D002F58062904215D14A6810
:1022200023F070031343114A90420AD0B0F1804F5B
:1022300007D0A2F59432904203D002F5806290421A
:1022400003D1CA6823F4407313434A6923F080031F
:10225000134303608B68C3620B688362034B98422D
:1022600004BF0B690363012343617047002C0140E5
:1022700010B50446A0B190F83D3003F0FF021BB941
:1022800080F83C2000F09EFE0223206884F83D3058
:10229000211DFFF7B5FF0123002084F83D3010BD5C
:1022A0000120FCE710B50446A0B190F83D3003F0E2
:1022B000FF021BB980F83C20FFF71EFE02232068B6
:1022C00084F83D30211DFFF79BFF0123002084F897
:1022D0003D3010BD0120FCE710B50446A0B190F8D8
:1022E0003D3003F0FF021BB980F83C2000F07CFE7B
:1022F0000223206884F83D30211DFFF781FF012370
:10230000002084F83D3010BD0120FCE7036A70B561
:1023100023F010030362036A446882690D6822F4A3
:10232000E64242EA05228D6823F0200343EA0513C2
:102330000B4DA8420DD1CD6823F0800343EA05136D
:1023400024F44064D1E90556354323F0400344EAC0
:102350008504446082614A688263036270BD00BF85
:10236000002C014038B590F83C300446012B4FF06A
:10237000020025D0012384F83D0084F83C300C2A6B
:1023800018D8DFE802F0071717171E1717172F17AF
:10239000171740002068FFF73BFD236809699A6919
:1023A00042F008029A619A6922F004029A619A69DD
:1023B0000A439A610123002084F83D3084F83C00F0
:1023C00038BD2068FFF7A2FF236809699A6942F4C3
:1023D00000629A619A6922F480629A619A6942EA7B
:1023E0000122E6E72068FFF73BFD23680969DA6907
:1023F00042F00802DA61DA6922F00402DA61DA698D
:102400000A43DA61D6E72068FFF754FD23680969BB
:10241000DA6942F40062DA61DA6922F48062DA6130
:10242000DA6942EA0122ECE770B5046A124E24F040
:1024300001040462B0428469056A19D0B0F1804F8A
:1024400016D0A6F59436B04212D006F58066B0429A
:102450000ED044F001021B01DBB222F0F0021A435D
:1024600001F00A0125F00A0319438261016270BD7F
:1024700024F003042243EEE7002C0140F8B590F865
:102480003C300446012B0D4617464FF0020019D090
:1024900006C9012384F83D0084F83C302068EB68CD
:1024A0008FB9FFF7C1FF2368A9689A6922F00C026F
:1024B0009A619A690A439A610123002084F83D30A9
:1024C00084F83C00F8BD042FAE68056A1ED125F0E3
:1024D0001005056285691B0325F44075076A45EA06
:1024E00002229BB222F4704209011A4301F0A001BA
:1024F00027F0A003194382610162836923F44063DA
:102500008361836943EA06268661D5E7082F1CD1DB
:1025100025F480750562C5691B0125F00305076A6E
:102520002A43DBB222F0F00209021A4301F40071DF
:1025300027F400731943C2610162C36923F00C03DD
:10254000C361C3691E43C661B6E725F480550562C1
:10255000C5691B0325F44075076A45EA022222F487
:1025600070429BB20903134301F4005127F4005257
:102570001143C3610162C36923F44063C361C3694A
:1025800043EA0626DFE710B50124036A8C4023EAFC
:1025900004030362036A8A401A43026210BD00000A
:1025A00010B5044601220068FFF7EDFF2368064AD4
:1025B0000020934202BF5A6C42F400425A641A68E7
:1025C00042F001021A6010BD002C0140FFF7E8BF85
:1025D00010B5044600680C290CD8DFE801F0070BA1
:1025E0000B0B150B0B0B190B0B0B1D00C36843F0EA
:1025F0000203C3600122FFF7C6FF226800201368B0
:1026000043F00103136010BDC36843F00403F0E717
:10261000C36843F00803ECE7C36843F01003E8E73E
:1026200090F83C3010B5012B4FF0020318D080F821
:102630003D3003680C685A68496822F070025A609D
:102640005A6822435A609A6822F080029A609A6817
:102650000A439A60012380F83D30002380F83C3023
:10266000184610BD7047704710B50B4C00224FF450
:1026700080712046FFF74AF900224FF4007120468E
:10268000FFF744F94FF0804332221A640023034AD3
:102690001370034A137010BD000C0140C2000020EB
:1026A0006A000020034A0368934204BF00225A6272
:1026B000704700BF0004004010B590B01022002108
:1026C00009A800F0B3FD1422002101A800F0AEFD1E
:1026D000022401224FF480334FF40031CDE9062368
:1026E000CDE90D434FF4E01306A808910A920F9329
:1026F000FFF712F90F234FF48062CDE90134002374
:10270000214601A8CDE903320593FFF7D1FA10B0B5
:1027100010BD0000000000002DE9804800244FF0AB
:1027200001084FF002094FF0040B93B0FEF77EFC56
:10273000FFF7C2FF102200210BA800F077FDC24B6B
:1027400004219A69C14842F020029A619A694FF0C7
:10275000804A02F020020292029A9A69BC4E42F02C
:1027600004029A619A69BB4F02F004020392039A31
:102770009A69B94D42F008029A619B69002203F000
:1027800008030493049BFFF7C1F800224FF4FE41B5
:10279000B248FFF7BBF80BA9AC48CDE90D49CDE92C
:1027A0000BB8FEF7D3FF4FF4FE430BA9AB48CDE9BE
:1027B0000B38CDE90D49FEF7C9FF2146102207A8C5
:1027C00000F034FD1C2221460BA8CDE9054400F0A1
:1027D0002DFD0823C6E900A34FF4C8733046C6E9AF
:1027E0000334B460B461FFF743FD4FF4805307A98D
:1027F00030460793FFF781FB3046FFF753FD05A9ED
:102800003046CDE90544FFF70BFF60230C220BA9EE
:102810003046CDE90B340D940F94FFF7A3FD3046FD
:1028200000F016FC214610220BA8CDE9074400F069
:10283000FDFC48238A4A3846C7E900234FF6FF7358
:10284000BC60C7E90334BC61FFF746FD07A9384601
:10285000CDE90744FFF7E4FE0F230C220BA938460D
:10286000CDE90B480D940E93FFF708FE7D4B2846EB
:10287000C5E9003B4FF4C023C5E90244C5E904346F
:102880002C766C76AC76EC762C776C77FEF704FCC5
:102890000C213846FFF79CFE0C213046FFF796FED0
:1028A000424659466948FFF731F83F226E4B6F495F
:1028B0001A60C3E90244C3F810904FF4F07328463D
:1028C000C1E900340C61C1E90244C1E90684C1F8E0
:1028D0002080FEF75CFC2846FEF7C5FC49462846EA
:1028E000FEF7AFFD3220FEF7C5FBDC230024CAF85B
:1028F00040305F4B00211D682846FEF749FB002849
:1029000000F0E4805B4F3E78022E40F053820022BC
:102910004FF480715148FEF7F9FF01224FF4007126
:102920004E48FEF7F3FF0122534BDFF870B11A70E7
:10293000CBF800502846FDF76FFD3FA3D3E90023F5
:10294000FEF748F8002860D00C214248FFF78EFBC4
:102950004A4BDFF84C8118604FF402735843FEF77E
:1029600003F94749FEF70CFA464B01461860064644
:102970004FF07E50FEF704FA4349C8F80000FEF716
:102980004BF9FEF70FFB414BC5B21D702146304697
:10299000FEF7D6FA08B1C8F800404FF080463C4B2D
:1029A000326CD8F800A01A605046FDF735FD80461D
:1029B000DBF800008946FDF72FFD21A3D3E90023B2
:1029C000CDE90001FDF780FD02460B464046494631
:1029D000FDF7ECFF002865D021465046FEF7B0FA1F
:1029E00000285FD140F2EE23326C9A424FF08042D1
:1029F00088BF3364136C013313641F4A254B12786C
:102A000003201D705A70FEF735FB02233B70FEF762
:102A10002BFB1423B0FBF3F202FB130030B91B4A6B
:102A20001C4B12781A70144A12785A70104B1A689C
:102A3000194B1A605DE700BF9A9999999999B93F26
:102A40002B8716D9CEF7EF3F001002400008014057
:102A5000D80000207400002034010020000C014048
:102A6000000400400064004060010020400000209D
:102A700030000020080000206A00002070000020C4
:102A8000002474497801002000007042C200002038
:102A9000D4000020B40000200C00002038000020EA
:102AA000B8000020AEA3D3E90023DDE90001FDF763
:102AB0000BFD02460B4640464946FDF795FF0028B0
:102AC000A3D04FF08042136C013B95E72146284686
:102AD000FEF740FA002800F0AE80DFF8C88298F8D0
:102AE0000020022A40F06E81DFF8BCA2A04D2868C9
:102AF000FDF792FC9CA3D3E90023FDF76BFF28B9F7
:102B0000FFF7B2FD012388F8003080E700224FF480
:102B100080719848FEF7FAFE01224FF40071954843
:102B2000FEF7F4FEDFF88492934B944EC9F8003020
:102B300001230C2192483370FFF798FA914B1860EB
:102B40004FF402735843FEF70FF85146FEF718F999
:102B50008D4B0146186083464FF07E50FEF710F90A
:102B60008A492860FEF758F8FEF71CFA884BC7B26E
:102B70001F7021465846FEF7E3F900B12C604FF074
:102B8000804B844BDBF84020D9F800902D688249B7
:102B90001A604846FEF740F82946FEF7F9F9E8B111
:102BA00021462846FEF7CCF9C0B940F2EE23DBF807
:102BB00040209A4288BFCBF840304FF080431A6CD7
:102BC0000AB901221A641A6C01321A64734B327802
:102BD00003201F705A70FEF74DFA87E77049484688
:102BE000FEF71AF801462846FEF7D2F900283FF40E
:102BF0007DAF4FF0804340F2EE22196C914288BFC6
:102C00001A641A6C0AB901221A644FF08042136CDC
:102C1000013B1364DAE762494046FDF7FDFF0146D8
:102C20003846FEF7B5F9002800F044814FF08042A5
:102C3000136C013B36E121462846FEF7A9F900282E
:102C400000F08A80DFF85C8198F80030012B40F0BA
:102C50008380DFF854A1464D2868FDF7DDFB42A3D1
:102C6000D3E90023FDF7B6FE18B9FFF7FDFC0223F8
:102C700049E701224FF480713E48FEF747FE0022EB
:102C80004FF400713B48FEF741FEDFF824913A4BC8
:102C90003A4EC9F8003002230C2139483370FFF74F
:102CA000E5F9384B18604FF402735843FDF75CFFA9
:102CB0005146FEF765F8344B0146186083464FF0E5
:102CC0007E50FEF75DF831492860FDF7A5FFFEF75D
:102CD00069F92F4BC7B21F7021465846FEF730F9ED
:102CE00000B12C604FF0804B2A4BDBF84020D9F824
:102CF00000902D6828491A604846FDF78DFF294647
:102D0000FEF746F9C8B121462846FEF719F9A0B9E1
:102D100040F2EE23DBF840209A424FF0804288BF19
:102D2000CBF84030136C0133136432781B4B032013
:102D30001F705A70FEF79EF98DE719494846FDF756
:102D40006BFF01462846FEF723F9002883D04FF099
:102D50008042136C013BE7E7FFF786FC57E600BFB4
:102D60006ABC74931804F03F9A9999999999B93F5C
:102D7000B8000020000C0140CDCCCC3D6A00002002
:102D800074000020700000207801002000007042D4
:102D9000C2000020D400002077BE7F3FB400002096
:102DA000C520803F0800002000247449380000201E
:102DB0003400002021462846FEF7CCF800283FF4D6
:102DC0003AAF3246012AC7D14FF480713E48FEF730
:102DD0009DFD00224FF400713B48FEF797FD022352
:102DE000DFF81481394E05F100453370C8F8005002
:102DF0002846FDF711FB32A3D3E90023FDF7EAFDD6
:102E0000002857D00C213248FFF730F9314BDFF85A
:102E1000ECA018604FF402735843FDF7A5FE2E494D
:102E2000FDF7AEFF2D4B0146186007464FF07E5070
:102E3000FDF7A6FF2A49CAF80000FDF7EDFEFEF7F0
:102E4000B1F8284BC5B21D7021463846FEF778F818
:102E500008B1CAF800404FF08049234BD9F8402010
:102E6000D8F80080DAF8007020491A604046FDF773
:102E7000D3FE3946FEF78CF800283FF4CCAE21464D
:102E80003846FEF75DF800287FF4C5AE40F2EE2329
:102E9000D9F840209A424FF0804288BFC9F84030AC
:102EA000136C013313643278114B03201D705A7078
:102EB000FEF7E0F801220F4B1A70A8E5AFF300808F
:102EC0009A9999999999B93F000C01406A0000209C
:102ED0007400002070000020002474497801002054
:102EE00000007042C2000020D400002077BE7F3F67
:102EF000B40000200800002034000020B8000020AA
:102F00000E4B82B09A6942F001029A619A6902F00E
:102F100001020092009ADA6942F08052DA61DB69BC
:102F2000074A03F080530193019B536823F0E06349
:102F300043F08063536002B0704700BF001002404E
:102F40000000014010B5044686B01022002102A8FE
:102F500000F06CF92268194B9A422DD103F5D63353
:102F6000DA6902A942F00072DA61DA69144802F003
:102F700000720092009A9A6942F004029A619B6979
:102F800003F004030193019B4FF400630293FEF7E7
:102F9000DDFB4FF480520223CDE90223032302A973
:102FA00007480593FEF7D2FB002214201146FEF7D6
:102FB00077FB1420FEF7A8FB06B010BD00640040AC
:102FC00000080140036882B0B3F1804F0AD103F5D5
:102FD0000433DA6942F00102DA61DB6903F00103CC
:102FE0000193019B02B0704710B5044686B01022D1
:102FF000002102A800F01AF92268134B9A4221D14D
:1030000003F50333DA6902A942F00202DA61DA69F0
:103010000E4802F002020092009A9A6942F00802F9
:103020009A619B6903F008030193019B02230293B9
:10303000FEF78CFB00221D201146FEF731FB1D2000
:10304000FEF762FB06B010BD00040040000C01401A
:1030500010B5044686B01022002102A800F0E6F860
:103060002368B3F1804F13D103F504339A6902A9A1
:1030700042F004029A619B69082203F00403019361
:10308000019B02230348CDE902230593FEF75EFB73
:1030900006B010BD000801407047FEE7FEE7FEE7FE
:1030A000FEE770477047704708B5FDF7DDFF142352
:1030B000B0FBF3F202FB130028B9054B054A0649A1
:1030C0000648FEF7FBF8BDE80840FDF7C1BF00BFAA
:1030D000CC000020B400002060010020340100205A
:1030E00010B5114C1148FEF7CAF92346104A0021C9
:1030F0000E48FEF730F923780E4A137053B9607802
:10310000FDF736FD0C49FDF73BFE00F100400B4B8F
:10311000186010BD012BFCD16078FDF729FD064930
:10312000FDF72EFEF3E700BFC300002034010020AE
:1031300018010020680000200000704230000020CC
:103140000148FEF7BABF00BF740000200F4B1A6899
:1031500042F001021A6059680D4A0A405A601A6822
:1031600022F0847222F480321A601A6822F48022DB
:103170001A605A6822F4FE025A604FF41F029A60E5
:103180004FF00062034B9A60704700BF001002408E
:103190000000FFF800ED00E0002103E00B4B5B585E
:1031A000435004310A480B4B42189A42F6D30A4A5C
:1031B00002E0002342F8043B084B9A42F9D3FFF7A0
:1031C000C5FF00F00FF8FFF7A7FA70477C32000840
:1031D0000000002014000020140000207C010020CA
:1031E000FEE7000070B500250C4E0D4CA41BA4108A
:1031F000A54209D100F022F800250A4E0A4CA41B72
:10320000A410A54205D170BD56F825309847013568
:10321000EEE756F8253098470135F2E7743200089A
:103220007432000874320008783200080346024401
:10323000934200D1704703F8011BF9E7F8B500BFCE
:10324000F8BC08BC9E467047F8B500BFF8BC08BC87
:043250009E467047DF
:1032540002030405060708090A0B0C0D0E0F1010D3
:103264000000000000000000010203040607080932
:043274003501000818
:043278001101000838
:10327C000100000010000000020000000000803F70
:04328C0000A24A044E
:040000050800319925
:00000001FF
