:020000040800F2
:1000000000500020492E0008652D0008672D0008CB
:10001000692D00086B2D00086D2D00080000000000
:100020000000000000000000000000006F2D00082C
:10003000712D000800000000732D0008752D0008C8
:10004000912E0008912E0008912E0008912E000894
:10005000912E0008912E0008912E0008912E000884
:10006000912E0008912E0008912E0008912E000874
:10007000912E0008912E0008912E0008912E000864
:10008000912E0008912E0008912E0008912E000854
:10009000792D0008912E0008912E0008912E00085D
:1000A000912E0008912E0008912E0008912E000834
:1000B000912E0008F12D0008912E0008912E0008C5
:1000C000912E0008912E0008912E0008912E000814
:1000D000912E0008912E0008912E0008912E000804
:1000E000912E0008912E0008912E000800000000BB
:1000F0000000000000000000000000000000000000
:0C01000000000000000000005FF808F1A3
:1001100010B5054C237833B9044B13B10448AFF341
:1001200000800123237010BD0C000020000000009F
:10013000EC2E000808B5034B1BB103490348AFF38D
:10014000008008BD0000000010000020EC2E000818
:1001500081F0004102E000BF83F0004330B54FEA78
:1001600041044FEA430594EA050F08BF90EA020FE5
:100170001FBF54EA000C55EA020C7FEA645C7FEA78
:10018000655C00F0E2804FEA5454D4EB5555B8BF9B
:100190006D420CDD2C4480EA020281EA030382EA0C
:1001A000000083EA010180EA020281EA0303362D9E
:1001B00088BF30BD11F0004F4FEA01314FF4801C71
:1001C0004CEA113102D0404261EB410113F0004F83
:1001D0004FEA03334CEA133302D0524263EB43033A
:1001E00094EA050F00F0A780A4F10104D5F1200ED8
:1001F0000DDB02FA0EFC22FA05F2801841F1000133
:1002000003FA0EF2801843FA05F359410EE0A5F106
:1002100020050EF1200E012A03FA0EFC28BF4CF037
:10022000020C43FA05F3C01851EBE37101F00045ED
:1002300007D54FF0000EDCF1000C7EEB00006EEBFA
:100240000101B1F5801F1BD3B1F5001F0CD3490884
:100250005FEA30004FEA3C0C04F101044FEA4452DB
:1002600012F5800F80F09A80BCF1004F08BF5FEA62
:10027000500C50F1000041EB045141EA050130BD42
:100280005FEA4C0C404141EB010111F4801FA4F1E5
:100290000104E9D191F0000F04BF01460020B1FA3A
:1002A00081F308BF2033A3F10B03B3F120020CDA72
:1002B0000C3208DD02F1140CC2F10C0201FA0CF050
:1002C00021FA02F10CE002F11402D8BFC2F1200CB5
:1002D00001FA02F120FA0CFCDCBF41EA0C0190406B
:1002E000E41AA2BF01EB0451294330BD6FEA0404B4
:1002F0001F3C1CDA0C340EDC04F11404C4F120029F
:1003000020FA04F001FA02F340EA030021FA04F3B0
:1003100045EA030130BDC4F10C04C4F1200220FA07
:1003200002F001FA04F340EA0300294630BD21FA45
:1003300004F0294630BD94F0000F83F4801306BF0B
:1003400081F480110134013D4EE77FEA645C18BFFF
:100350007FEA655C29D094EA050F08BF90EA020F96
:1003600005D054EA000C04BF1946104630BD91EA8E
:10037000030F1EBF0021002030BD5FEA545C05D191
:100380004000494128BF41F0004130BD14F58004D0
:100390003CBF01F5801130BD01F0004545F0FE4144
:1003A00041F470014FF0000030BD7FEA645C1ABF79
:1003B000194610467FEA655C1CBF0B46024650EAB0
:1003C000013406BF52EA033591EA030F41F40021DC
:1003D00030BD00BF90F0000F04BF0021704730B562
:1003E0004FF4806404F132044FF000054FF0000137
:1003F00050E700BF90F0000F04BF0021704730B5F8
:100400004FF4806404F1320410F0004548BF4042CC
:100410004FF000013EE700BF42004FEAE2014FEA21
:1004200031014FEA02701FBF12F07F4393F07F4FFC
:1004300081F06051704792F0000F14BF93F07F4F2E
:10044000704730B54FF4607401F0004521F0004171
:1004500020E700BF50EA010208BF704730B54FF0F7
:1004600000050AE050EA010208BF704730B511F0FC
:10047000004502D5404261EB41014FF4806404F134
:1004800032045FEA915C3FF4DCAE4FF003025FEAB6
:10049000DC0C18BF03325FEADC0C18BF033202EB3E
:1004A000DC02C2F1200300FA03FC20FA02F001FA98
:1004B00003FE40EA0E0021FA02F11444C1E600BF37
:1004C00070B54FF0FF0C4CF4E06C1CEA11541DBFEA
:1004D0001CEA135594EA0C0F95EA0C0F00F0DEF8B5
:1004E0002C4481EA030621EA4C5123EA4C5350EA9A
:1004F000013518BF52EA033541F4801143F48013EB
:1005000038D0A0FB02CE4FF00005E1FB02E506F07B
:100510000042E0FB03E54FF00006E1FB03569CF0D0
:10052000000F18BF4EF0010EA4F1FF04B6F5007FD6
:1005300064F5407404D25FEA4E0E6D4146EB060648
:1005400042EAC62141EA55514FEAC52040EA5E50D1
:100550004FEACE2EB4F1FD0C88BFBCF5E06F1ED87B
:10056000BEF1004F08BF5FEA500E50F1000041EBB2
:10057000045170BD06F0004646EA010140EA02005F
:1005800081EA0301B4EB5C04C2BFD4EB0C0541EA81
:10059000045170BD41F480114FF0000E013C00F396
:1005A000AB8014F1360FDEBF002001F0004170BDBA
:1005B000C4F10004203C35DA0C341BDC04F11404D3
:1005C000C4F1200500FA05F320FA04F001FA05F25F
:1005D00040EA020001F0004221F0004110EBD3702C
:1005E00021FA04F642EB06015EEA430E08BF20EA58
:1005F000D37070BDC4F10C04C4F1200500FA04F3FB
:1006000020FA05F001FA04F240EA020001F000418C
:1006100010EBD37041F100015EEA430E08BF20EAFF
:10062000D37070BDC4F1200500FA05F24EEA020E47
:1006300020FA04F301FA05F243EA020321FA04F076
:1006400001F0004121FA04F220EA020000EBD3702D
:100650005EEA430E08BF20EAD37070BD94F0000F2D
:100660000FD101F00046400041EB010111F4801F61
:1006700008BF013CF7D041EA060195F0000F18BF12
:10068000704703F00046520043EB030313F4801F4E
:1006900008BF013DF7D043EA0603704794EA0C0F08
:1006A0000CEA135518BF95EA0C0F0CD050EA41061E
:1006B00018BF52EA4306D1D181EA030101F000419B
:1006C0004FF0000070BD50EA410606BF10461946C3
:1006D00052EA430619D094EA0C0F02D150EA0136CF
:1006E00013D195EA0C0F05D152EA03361CBF104610
:1006F00019460AD181EA030101F0004141F0FE41AF
:1007000041F470014FF0000070BD41F0FE4141F432
:10071000780170BD70B54FF0FF0C4CF4E06C1CEA32
:1007200011541DBF1CEA135594EA0C0F95EA0C0FE7
:1007300000F0A7F8A4EB050481EA030E52EA0335A2
:100740004FEA013100F088804FEA03334FF08055C3
:1007500045EA131343EA12634FEA022245EA1115F0
:1007600045EA10654FEA00260EF000419D4208BFA1
:10077000964244F1FD0404F5407402D25B084FEA4E
:100780003202B61A65EB03055B084FEA32024FF4FA
:1007900080104FF4002CB6EB020E75EB030E22BF57
:1007A000B61A754640EA0C005B084FEA3202B6EB17
:1007B000020E75EB030E22BFB61A754640EA5C00C6
:1007C0005B084FEA3202B6EB020E75EB030E22BF56
:1007D000B61A754640EA9C005B084FEA3202B6EB57
:1007E000020E75EB030E22BFB61A754640EADC0016
:1007F00055EA060E18D04FEA051545EA16754FEA78
:1008000006164FEAC30343EA52734FEAC2025FEA95
:100810001C1CC0D111F4801F0BD141EA00014FF024
:1008200000004FF0004CB6E711F4801F04BF0143F5
:100830000020B4F1FD0C88BFBCF5E06F3FF6AFAE11
:10084000B5EB030C04BFB6EB020C5FEA500C50F1A1
:10085000000041EB045170BD0EF0004E4EEA113124
:1008600014EB5C04C2BFD4EB0C0541EA045170BD2B
:1008700041F480114FF0000E013C90E645EA060E6F
:100880008DE60CEA135594EA0C0F08BF95EA0C0F9D
:100890003FF43BAF94EA0C0F0AD150EA01347FF4E5
:1008A00034AF95EA0C0F7FF425AF104619462CE7BC
:1008B00095EA0C0F06D152EA03353FF4FDAE10461F
:1008C000194622E750EA410618BF52EA43067FF470
:1008D000C5AE50EA41047FF40DAF52EA43057FF400
:1008E000EBAE12E74FF0FF3C06E000BF4FF0010C0B
:1008F00002E000BF4FF0010C4DF804CD4FEA410C6F
:100900007FEA6C5C4FEA430C18BF7FEA6C5C1BD03B
:1009100001B050EA410C0CBF52EA430C91EA030FBC
:1009200002BF90EA020F0020704710F1000F91EA19
:10093000030F58BF994208BF90422CBFD8176FEAE7
:10094000E37040F0010070474FEA410C7FEA6C5CB5
:1009500002D150EA013C07D14FEA430C7FEA6C5CBC
:10096000D6D152EA033CD3D05DF8040B704700BFE8
:100970008446104662468C461946634600E000BF36
:1009800001B5FFF7B7FF002848BF10F1000F01BD08
:100990004DF808EDFFF7F4FF0CBF012000205DF8D3
:1009A00008FB00BF4DF808EDFFF7EAFF34BF012058
:1009B00000205DF808FB00BF4DF808EDFFF7E0FFF1
:1009C00094BF012000205DF808FB00BF4DF808ED42
:1009D000FFF7CEFF94BF012000205DF808FB00BFA9
:1009E0004DF808EDFFF7C4FF34BF012000205DF88B
:1009F00008FB00BF80F0004002E000BF81F0004132
:100A000042001FBF5FEA410392EA030F7FEA226CB4
:100A10007FEA236C6AD04FEA1262D2EB1363C1BF44
:100A2000D218414048404140B8BF5B42192B88BFB3
:100A3000704710F0004F40F4000020F07F4018BFD6
:100A4000404211F0004F41F4000121F07F4118BFF6
:100A5000494292EA030F3FD0A2F1010241FA03FC9E
:100A600010EB0C00C3F1200301FA03F100F0004386
:100A700002D5494260EB4000B0F5000F13D3B0F14E
:100A8000807F06D340084FEA310102F10102FE2ABD
:100A900051D2B1F1004F40EBC25008BF20F001002D
:100AA00040EA03007047490040EB000010F4000FDB
:100AB000A2F10102EDD1B0FA80FCACF1080CB2EB6E
:100AC0000C0200FA0CF0AABF00EBC25052421843CD
:100AD000BCBFD0401843704792F0000F81F4000172
:100AE00006BF80F400000132013BB5E74FEA410345
:100AF0007FEA226C18BF7FEA236C21D092EA030FB1
:100B000004D092F0000F08BF0846704790EA010F2A
:100B10001CBF0020704712F07F4F04D1400028BF57
:100B200040F00040704712F100723CBF00F5000039
:100B3000704700F0004343F0FE4040F4000070476F
:100B40007FEA226216BF08467FEA2363014642021B
:100B500006BF5FEA412390EA010F40F4800070472E
:100B60004FF0000304E000BF10F0004348BF4042D4
:100B70005FEA000C08BF704743F0964301464FF010
:100B800000001CE050EA010208BF70474FF000036C
:100B90000AE000BF50EA010208BF704711F00043AD
:100BA00002D5404261EB41015FEA010C02BF84467D
:100BB0000146002043F0B64308BFA3F18053A3F5DC
:100BC0000003BCFA8CF2083AA3EBC25310DB01FA23
:100BD00002FC634400FA02FCC2F12002BCF1004FA7
:100BE00020FA02F243EB020008BF20F00100704738
:100BF00002F1200201FA02FCC2F1200250EA4C008C
:100C000021FA02F243EB020008BF20EADC707047D1
:100C10004FF0FF0C1CEAD0521EBF1CEAD15392EADF
:100C20000C0F93EA0C0F6FD01A4480EA010C4002BB
:100C300018BF5FEA41211ED04FF0006343EA501015
:100C400043EA5111A0FB01310CF00040B1F5000F57
:100C50003EBF490041EAD3715B0040EA010062F106
:100C60007F02FD2A1DD8B3F1004F40EBC25008BFF0
:100C700020F00100704790F0000F0CF0004C08BF0E
:100C800049024CEA502040EA51207F3AC2BFD2F1DB
:100C9000FF0340EAC250704740F400004FF00003E9
:100CA000013A5DDC12F1190FDCBF00F00040704723
:100CB000C2F10002410021FA02F1C2F1200200FA61
:100CC00002FC5FEA310040F1000053EA4C0308BF28
:100CD00020EADC70704792F0000F00F0004C02BF79
:100CE000400010F4000F013AF9D040EA0C0093F0F4
:100CF000000F01F0004C02BF490011F4000F013B4E
:100D0000F9D041EA0C018FE70CEAD15392EA0C0FBB
:100D100018BF93EA0C0F0AD030F0004C18BF31F026
:100D2000004CD8D180EA010000F00040704790F0FC
:100D3000000F17BF90F0004F084691F0000F91F0A0
:100D4000004F14D092EA0C0F01D142020FD193EA66
:100D50000C0F03D14B0218BF084608D180EA0100EE
:100D600000F0004040F0FE4040F40000704740F0CA
:100D7000FE4040F4400070474FF0FF0C1CEAD05298
:100D80001EBF1CEAD15392EA0C0F93EA0C0F69D0F4
:100D9000A2EB030280EA010C49024FEA402037D05F
:100DA0004FF0805343EA111143EA10130CF0004056
:100DB0008B4238BF5B0042F17D024FF4000C8B4246
:100DC00024BF5B1A40EA0C00B3EB510F24BFA3EB26
:100DD000510340EA5C00B3EB910F24BFA3EB9103F6
:100DE00040EA9C00B3EBD10F24BFA3EBD10340EA50
:100DF000DC001B0118BF5FEA1C1CE0D1FD2A3FF696
:100E000050AF8B4240EBC25008BF20F0010070474A
:100E10000CF0004C4CEA50207F32C2BFD2F1FF03ED
:100E200040EAC250704740F400004FF00003013A1E
:100E300037E792F0000F00F0004C02BF400010F4C2
:100E4000000F013AF9D040EA0C0093F0000F01F0D6
:100E5000004C02BF490011F4000F013BF9D041EAF8
:100E60000C0195E70CEAD15392EA0C0F08D142022B
:100E70007FF47DAF93EA0C0F7FF470AF084676E7FE
:100E800093EA0C0F04D14B023FF44CAF08466EE7D7
:100E900030F0004C18BF31F0004CCAD130F00042A5
:100EA0007FF45CAF31F000437FF43CAF5FE700BFFD
:100EB0004FF0FF3C06E000BF4FF0010C02E000BF26
:100EC0004FF0010C4DF804CD4FEA40024FEA4103C8
:100ED0007FEA226C18BF7FEA236C11D001B052EA7E
:100EE000530C18BF90EA010F58BFB2EB030088BF44
:100EF000C81738BF6FEAE17018BF40F001007047B3
:100F00007FEA226C02D15FEA402C05D17FEA236C94
:100F1000E4D15FEA412CE1D05DF8040B704700BFDB
:100F2000844608466146FFE70FB5FFF7C9FF002872
:100F300048BF10F1000F0FBD4DF808EDFFF7F4FFAB
:100F40000CBF012000205DF808FB00BF4DF808ED44
:100F5000FFF7EAFF34BF012000205DF808FB00BF67
:100F60004DF808EDFFF7E0FF94BF012000205DF889
:100F700008FB00BF4DF808EDFFF7D2FF94BF01203A
:100F800000205DF808FB00BF4DF808EDFFF7C8FF33
:100F900034BF012000205DF808FB00BF42000ED2E4
:100FA000B2F1FE4F0BD34FF09E03B3EB126209D4A4
:100FB0004FEA002343F0004323FA02F070474FF05A
:100FC0000000704712F1610F01D1420202D14FF0CF
:100FD000FF3070474FF00000704700BF38B50E4B30
:100FE000054618784FF47A73B3FBF0F30B4A106898
:100FF000B0FBF3F000F090FB044658B90F2D09D870
:10100000024629464FF0FF3000F046FB044B2046D5
:101010001D6038BD012038BD000000200800002000
:1010200004000020074A08B51368032043F01003AA
:10103000136000F01FFB0020FFF7D0FF01F0C6FD9A
:10104000002008BD00200240034A044B11681B78B1
:101050000B441360704700BF3400002000000020E4
:10106000014B1868704700BF3400002038B50446B3
:10107000FFF7F6FF0546631C1EBF044B1B78E41800
:10108000FFF7EEFF401B8442FAD838BD0000002075
:1010900038B5044600286ED090F820300BB901F026
:1010A000B7FD2268136823F002031360FFF7D8FF2F
:1010B000054623685A68910751D41A6842F0010224
:1010C0001A60FFF7CDFF054623685A68D20754D54A
:1010D000227E0020012A1A680CBF42F0800222F012
:1010E00080021A60627E012A1A680CBF42F0400238
:1010F00022F040021A60A27E012A1A680CBF42F058
:10110000200222F020021A60E27E012A1A680CBF37
:1011100022F0100242F010021A60227F012A1A689F
:101120000CBF42F0080222F008021A60627F012A16
:101130001A680CBF42F0040222F004021A60E1684F
:10114000A2680A4321690A4361690A436168013957
:101150000A43DA610123606284F8203038BDFFF76A
:101160007FFF401B0A28A4D9636A43F400336362FB
:10117000052384F82030012038BDFFF771FF401BA4
:101180000A28A1D9F0E790F8203070B5013B012B77
:101190005FD8012403684869D3F8002242F00102B5
:1011A000C3F8002200F01F0204FA02F2D443D3F87D
:1011B0001C522540C3F81C52CD6985BBD3F80C5294
:1011C000CE682540C3F80C528D8803EBC00045EA79
:1011D0000645C0F840528E680D8845EA0645C0F8BD
:1011E0004452886968BBD3F804022040C3F8040263
:1011F000086950BBD3F814022040C3F81402096AEE
:101200000020012902BFD3F81C120A43C3F81C2294
:10121000D3F8002222F00102C3F8002270BD012D94
:10122000DFD1D3F80C520E681543C3F80C528D88E9
:1012300003EBC00045EA0645C0F840528E688D8930
:10124000CBE7D3F804021043D0E7D3F814021043DD
:10125000D3E7436A43F480234362012070BD38B56D
:1012600090F820300446012B1FD10223026880F839
:101270002030136823F001031360FFF7F1FE0546E9
:101280002368586810F0010001D1606238BDFFF793
:10129000E7FE401B0A28F3D9636A43F40033636214
:1012A000052384F82030012038BD436A43F400232D
:1012B0004362F8E7F0B590F820500668013D012D33
:1012C000B46841D814F0E05F3AD0C4F30164032C51
:1012D0004FF0010505D1436A43F400034362012046
:1012E000F0BDA5401D608868CF6804F1180310BBED
:1012F000086847EA40501B01F05008692401097D45
:101300003319C3F88401012908BFD3F88411344488
:1013100004BF41F48071C3F8841151680020C4F8FF
:101320008C111268C4F88821D3F8802142F00102A0
:10133000C3F88021F0BD4D68384340EAC500DAE7C4
:10134000436A43F40013C9E7436A43F48023C5E7C3
:10135000F0B590F82040013C012C6BD8066841B9EB
:10136000F468A40707D1436A43F4001343620120E1
:10137000F0BD3469F5E70C013519D5F8B07107F007
:1013800004079760002F4BD1D5F8B0717F0D17601F
:10139000D5F8B0712644C7F34007D760D5F8B471CB
:1013A00007F00F071761D5F8B471D5F8B451C7F33A
:1013B00007272D0C97615561D6F8B8211A7002687D
:1013C0002244D2F8B821120A5A7002682244D2F894
:1013D000B821120C9A7002682244D2F8B821120E79
:1013E000DA7002682244D2F8BC211A7102682244E1
:1013F000D2F8BC21120A5A7102682244D2F8BC21E8
:10140000120C9A7102681444D4F8BC21120EDA71DD
:10141000036851B9DA6842F02002DA600020F0BDBA
:10142000D5F8B071FF085760B2E71A6942F02002A0
:101430001A61F3E7436A43F4802397E790F820307A
:10144000013B012B05D80268002053691943516103
:101450007047436A43F4802343620120704770471A
:1014600070477047704770477047704770477047C4
:1014700070477047704770472DE9F84F036805467D
:101480005E69D3F8049016F001049F68D3F80CB09D
:10149000D3F810A0D3F8188022D017F0010407D099
:1014A0000122B9079A6040F1A380FFF7D8FF00241A
:1014B000FB0509D54FF480722B68B8059A6040F19E
:1014C000A5802846FFF7CCFFFB0309D54FF48032F7
:1014D0002B68B8039A6040F1A7802846FFF7C1FF48
:1014E000330707D51BF0100F1FBF10222B6844F4E1
:1014F0000074DA60770708D51BF0080F05D00822C2
:101500002B682846DA60FFF7B1FFB00706D52B68D5
:10151000DB68990702D02846FFF7A7FF720607D5B8
:101520001AF0100F1FBF10222B6844F480641A6158
:10153000B30608D51AF0080F05D008222B682846F4
:101540001A61FFF795FFF70606D52B681B69980708
:1015500002D02846FFF78BFFB10308D519F0100F12
:1015600005D010222B6828465A60FFF782FFF2034D
:1015700008D519F0080F05D008222B6828465A60B4
:10158000FFF778FF33042AD519F0040F2A6824D016
:10159000F70504D518F0010F18BF44F00104B00599
:1015A00004D518F0020F18BF44F00204710504D5E9
:1015B00018F0040F18BF44F0040433050DD518F0DB
:1015C00070030AD0302B4CD03CD8102B43D0202BAA
:1015D00044D0936923F070039361042353602CB1CA
:1015E0006B6A28461C436C62FFF745FFBDE8F88F25
:1015F0007A0705D417F0080405D1FFF733FF57E742
:101600004FF4006454E74FF4805451E7790502D554
:1016100044F4005458E73A0502D544F4804453E7B3
:101620002846FFF720FF4FE7790302D544F4004432
:1016300056E73A0302D544F4803451E72846FFF7D1
:1016400013FF4DE7502B0FD0602B10D0402BC0D193
:1016500044F04004BDE744F00804BAE744F0100445
:10166000B7E744F02004B4E744F08004B1E744F461
:101670008074AEE7074A0002D36800F4E06023F408
:10168000E0631B041B0C43F0BF6343F400330343CC
:10169000D360704700ED00E0174B30B5DC68C4F351
:1016A0000224C4F10703251D042B28BF0423062DA3
:1016B0004FF0010598BF002405FA03F303F1FF334F
:1016C00088BF033C1940A14005FA04F4013C2240C4
:1016D000002842EA01024FEA0212AFBF00F1604067
:1016E000064B00F00F00D2B2A5BFD2B200F56140A8
:1016F0001A5480F8002330BD00ED00E014ED00E046
:101700000123420900F01F0003FA00F0014B43F8E7
:101710002200704700E100E00138B0F1807F0AD27A
:10172000F021064B064A586082F823100020072259
:1017300098601A6070470120704700BF10E000E019
:1017400000ED00E02DE9F74F00221646654BDFF86B
:10175000A4E1DFF8A4C14FF001080C6808FA06F80C
:1017600008EA0404A0457FD14D68122D00F0AF8037
:1017700000F28880022D00F0A7807CD8002D00F0B8
:101780008E80012D00F09E804FF00F09FF2C93BF3B
:10179000824606F18045083DD0F800B092BFB50002
:1017A000D0F804B0AD0009FA05F82BEA080802FAEF
:1017B00005F588BF00F1040A48EA0505CAF800509B
:1017C000D1F804A01AF0805F4ED0474D464FAD6966
:1017D00026F0030845F00105BD61BD6908F18048A8
:1017E00005F00105019508F5803806F0030B019D11
:1017F0004FEA8B0BD8F8085009FA0BF925EA0909CA
:101800003A4DA84268D005F58065A84266D005F536
:101810008065A84264D005F58065A8420CBF032509
:10182000042505FA0BF545EA0905C8F808501D68B6
:101830001AF4803F14BF2543A5431D605D681AF468
:10184000003F14BF2543A5435D609D681AF4801FC7
:1018500014BF2543A5439D60DD681AF4001F14BF23
:101860002C4325EA0404DC600136102E7FF473AFAC
:1018700003B0BDE8F08F032D22D0112D84D1CA68AA
:10188000043281E71A4FBD4209D012D8DFF86C90BC
:101890004D4504D009F580394D457FF475AF8A6810
:1018A000C2B1012A0CBFC0F81080C0F81480082211
:1018B0006AE77545F3D06545F1D0DFF84490EBE772
:1018C000002261E7CA685FE7CA6808325CE7CA6855
:1018D0000C3259E7042257E70025A2E70125A0E7CB
:1018E00002259EE70004014000100240000801406C
:1018F0000000211000003110000032100000111013
:10190000000022100AB1016170470904FBE70000E2
:1019100003682DE9F341DB07054610D42B689F07C8
:101920005ED42B68190700F195802B685A0700F1E7
:10193000BF80EA69002A40F02D81002014E0904C1D
:10194000636803F00C03042B07D0636803F00C03F7
:10195000082B0CD16368DE0309D523689C03DDD511
:101960006B68002BDAD1012002B0BDE8F0816B6812
:10197000B3F5803F10D1236843F480332360FFF731
:101980006FFB064623689803C8D4FFF769FB801BEA
:101990006428F7D90320E7E79BB9236823F4803351
:1019A0002360236823F480232360FFF759FB064656
:1019B00023689903B2D5FFF753FB801B6428F7D93E
:1019C000E8E7B3F5A02F236803D143F48023236015
:1019D000D1E723F480332360236823F48023CDE709
:1019E000674C636813F00C0F07D0636803F00C03B7
:1019F000082B10D16368DA030DD423689B0702D546
:101A00002B69012BAFD123686A6923F0F80343EAFD
:101A1000C203236085E72A695A4B6AB101221A6022
:101A2000FFF71EFB064623689F07ECD4FFF718FB61
:101A3000801B0228F7D9ADE71A60FFF711FB0646B5
:101A4000236898077FF56DAFFFF70AFB801B02281C
:101A5000F6D99FE7AA694A4C4B4BDAB101221A60CA
:101A6000FFF7FEFA0646636A9B070DD54FF4FA525C
:101A7000464B1B68B3FBF2F3019300BF019B5A1E58
:101A80000192002BF9D150E7FFF7EAFA801B0228F8
:101A9000E9D97FE71A60FFF7E3FA0646636A9F0712
:101AA0007FF543AFFFF7DCFA801B0228F6D971E718
:101AB000334CE369D80024D40127E36943F0805311
:101AC000E361E36903F080530093009B304E336879
:101AD000D90518D5EB68012B26D1236A43F0010301
:101AE0002362FFF7BDFA41F288368046236A9B07DE
:101AF0003FD5002F3FF41DAFE36923F08053E3612E
:101B000017E70027E2E7336843F480733360FFF799
:101B1000A7FA80463368DA05DCD4FFF7A1FAA0EB18
:101B200008006428F6D935E7ABB9236A41F2883852
:101B300023F001032362236A23F004032362FFF7E7
:101B40008FFA0646236A9807D3D5FFF789FA801BD8
:101B50004045F7D91EE7052B236A03D143F0040360
:101B60002362BAE723F001032362236A23F004030C
:101B7000B6E7FFF775FAA0EB0800B042B6D909E75F
:101B8000001002400000424280044242080000204F
:101B900000700040224C636803F00C03082B3FF4F4
:101BA000E2AE00231F4E022A33602BD1FFF758FA12
:101BB0000746236899011FD42B6AB3F5803F05D1EE
:101BC0006268A96822F400320A436260696A626846
:101BD0000B4322F474121343636001233360FFF755
:101BE0003FFA054623689A013FF5A7AEFFF738FA9A
:101BF000401B0228F6D9CDE6FFF732FAC01B0228B7
:101C0000D7D9C7E6FFF72CFA054623689B017FF575
:101C100094AEFFF725FA401B0228F6D9BAE600BFBA
:101C2000001002406000424230B51B4B87B002AC4E
:101C300003F11005224618685968083303C2AB4205
:101C40001446F7D101238DF80430022313498DF88F
:101C500005304B6803F00C02042A1BD0082A02D07E
:101C60000F4807B030BDC3F3834206A80244DB032C
:101C700012F8102C0BD54B680A48C3F3404350436D
:101C800006AA134413F8143CB0FBF3F0E9E7064846
:101C90005043E6E70348E4E7042F00080010024041
:101CA00000127A000024F40000093D00544A2DE996
:101CB000F0411368054603F007038B420E462AD312
:101CC00029688C0734D4CA0747D44D4A136803F0F7
:101CD00007039E42C0F082802A684A4C12F0040F2B
:101CE00040F08780130706D563682A6923F46053A0
:101CF00043EAC2036360FFF797FF6368424AC3F396
:101D00000313D35CD840414B18600020FFF766F9FD
:101D10000020BDE8F081136823F007030B43136034
:101D2000136803F007039942CAD00120BDE8F0818F
:101D3000344B11F0040F1EBF5A6842F4E0625A603F
:101D4000080742BF5A6842F460525A605A68A8684D
:101D500022F0F00202435A60B5E76A68294C012A72
:101D600023681CD113F4003FDFD0636841F2883848
:101D700023F0030313436360FFF772F96B680746B0
:101D8000012B14D1636803F00C03042B9DD0FFF7E3
:101D900067F9C01B4045F5D90320BDE8F081022A50
:101DA00002D113F0007FDFE713F0020FDCE7022B14
:101DB0000FD1636803F00C03082B86D0FFF750F9AE
:101DC000C01B4045F5D9E7E7FFF74AF9C01B40457E
:101DD000E2D8636813F00C0FF6D176E7136823F0AE
:101DE000070333431360136803F007039E429CD13B
:101DF00072E76368E96823F4E0630B43636071E7AB
:101E00000020024000100240142F000808000020AB
:101E1000036A70B523F001030362036A44688269B0
:101E20000D6822F073022A438D6823F002032B43CE
:101E30000A4DA8420BD1CD6823F008032B438E69CD
:101E40004D6924F44074354323F004032C4344606B
:101E500082614A684263036270BD00BF002C01408A
:101E6000036A70B523F480730362036A4468C2692D
:101E70000D6822F073022A438D6823F4007343EA4D
:101E800005230B4DA8420DD1CD6823F4006343EA2E
:101E900005238E694D6924F44054354323F480634F
:101EA00044EA05144460C2614A68C263036270BDBB
:101EB000002C0140036A30B523F480530362036AA7
:101EC0004468C2690D6822F4E64242EA05228D6840
:101ED00023F4005343EA0533064DA84202BF4D697F
:101EE00024F4804444EA85144460C2614A68026470
:101EF000036230BD002C01407047704790F83C30C1
:101F000070B5012B4FF002031CD0012280F83D3048
:101F1000036880F83C209A6822F47F4222F077021E
:101F20009A600A68402A79D019D8102A00F0938064
:101F30000AD8002A00F08980012380F83D30002370
:101F400080F83C30184670BD202A00F08A80302A84
:101F5000F2D19A6822F0700242F0370236E0702A1D
:101F600036D01BD8502A42D0602AE5D11C6A4D6871
:101F700024F01004CE681C6299691A6A21F4704139
:101F800022F0A00242EA051241EA063199611A6282
:101F90009A6822F0700242F0670217E0B2F5805FA3
:101FA00011D0B2F5005FC7D18A684D689C68C968D6
:101FB0002A4324F47F4442EA012222439A609A6829
:101FC00042F4804202E09A6822F007029A60B3E786
:101FD0008A684D689C68C9682A4324F47F4442EAB1
:101FE000012222439A609A6842F07702EEE74C6839
:101FF000CE68196A1D6A21F00A0125F001051D62EB
:102000009A69214322F0F00242EA06129A611962AB
:102010009A6822F0700242F05702D7E74C68CE6807
:10202000196A1D6A21F00A0125F001051D629A69ED
:10203000214322F0F00242EA06129A6119629A687C
:1020400022F0700242F04702C0E79A6822F0700264
:1020500042F00702BAE79A6822F0700242F01702D3
:10206000B4E79A6822F0700242F02702AEE790F8D7
:102070003C30012B1CD00C2918D8DFE801F00717E1
:1020800017170E17171711171717140003685B6B34
:10209000002280F83C201846704703689B6BF7E7E6
:1020A0000368DB6BF4E703681B6CF1E70023EFE7E1
:1020B0000223F0E77047704770477047036810B518
:1020C0001A69044691070ED5DA6892070BD56FF0AE
:1020D00002021A6101229B6902779B0777D000F008
:1020E000C7FA0023237723681A69500710D5DA68E6
:1020F00051070DD56FF004021A6102229B69227705
:1021000013F4407F204668D000F0B2FA0023237712
:1021100023681A6912070FD5DA6810070CD56FF01B
:1021200008021A610422DB692277990720465AD0F7
:1021300000F09EFA0023237723681A69D20610D58F
:10214000DA68D0060DD56FF010021A610822DB693B
:10215000227713F4407F20464BD000F089FA002309
:10216000237723681A69D10708D5DA68D20705D51D
:102170006FF0010220461A61FFF79CFF23681A697D
:10218000100608D5DA68110605D56FF080022046E2
:102190001A6100F06CFA23681A69520608D5DA68E9
:1021A000500605D56FF0400220461A61FFF785FF03
:1021B00023681A69910622D5DA6892061FD56FF056
:1021C00020022046BDE810401A6100F04FBAFFF728
:1021D00072FF2046FFF770FF83E7FFF76CFF204692
:1021E000FFF76AFF92E7FFF766FF2046FFF764FFFD
:1021F000A0E7FFF760FF2046FFF75EFFAFE710BDE7
:102200001A4A036890420AD0B0F1804F07D0A2F575
:102210009432904203D002F58062904215D14A6810
:1022200023F070031343114A90420AD0B0F1804F5B
:1022300007D0A2F59432904203D002F5806290421A
:1022400003D1CA6823F4407313434A6923F080031F
:10225000134303608B68C3620B688362034B98422D
:1022600004BF0B690363012343617047002C0140E5
:1022700010B50446A0B190F83D3003F0FF021BB941
:1022800080F83C2000F004FD0223206884F83D30F3
:10229000211DFFF7B5FF0123002084F83D3010BD5C
:1022A000012010BD10B50446A0B190F83D3003F0F8
:1022B000FF021BB980F83C20FFF71EFE02232068B6
:1022C00084F83D30211DFFF79BFF0123002084F897
:1022D0003D3010BD012010BD10B50446A0B190F8EE
:1022E0003D3003F0FF021BB980F83C20FFF705FEEC
:1022F0000223206884F83D30211DFFF781FF012370
:10230000002084F83D3010BD012010BD036A70B577
:1023100023F010030362036A446882690D6822F4A3
:10232000E64242EA05228D6823F0200343EA0513C2
:102330000B4DA8420DD1CD6823F0800343EA05136D
:102340008E694D6924F44064354323F0400344EA28
:102350008504446082614A688263036270BD00BF85
:10236000002C014038B590F83C300446012B4FF06A
:10237000020025D0012384F83D0084F83C300C2A6B
:1023800018D8DFE802F0071717171E1717172F17AF
:10239000171740002068FFF73BFD236809699A6919
:1023A00042F008029A619A6922F004029A619A69DD
:1023B0000A439A610123002084F83D3084F83C00F0
:1023C00038BD2068FFF7A2FF236809699A6942F4C3
:1023D00000629A619A6922F480629A619A6942EA7B
:1023E0000122E6E72068FFF73BFD23680969DA6907
:1023F00042F00802DA61DA6922F00402DA61DA698D
:102400000A43DA61D6E72068FFF754FD23680969BB
:10241000DA6942F40062DA61DA6922F48062DA6130
:10242000DA6942EA0122ECE770B5046A124E24F040
:1024300001040462B0428469056A0AD0B0F1804F99
:1024400007D0A6F59436B04203D006F58066B042B8
:102450000FD124F0030422431B0122F0F002DBB26F
:1024600025F00A0501F00A011A432943826101623D
:1024700070BD44F00102EFE7002C0140F8B590F880
:102480003C300446012B0D464FF0020019D00123C9
:1024900084F83D0084F83C30A2B9CB68206806C9B6
:1024A000FFF7C2FF2368A9689A6922F00C029A61BB
:1024B0009A690A439A610123002084F83D3084F828
:1024C0003C00F8BD042A8E68236882C9E8681FD1E1
:1024D0001A6A000322F010021A629A691D6A22F435
:1024E000407242EA072280B222F47042090102439C
:1024F00001F0A00125F0A00001439A6119629A69D8
:1025000022F440629A619A6942EA06269E61D2E705
:10251000082A1A6A1CD122F480721A62DA69000150
:1025200022F003021D6A3A43C0B222F0F00209020F
:10253000024301F4007125F400700143DA6119626D
:10254000DA6922F00C02DA61DA691643DE61B2E779
:1025500022F480521A62DA69000322F440721D6A82
:1025600042EA072222F4704280B20903104301F4C8
:10257000005125F400521143D8611962DA6922F43E
:102580004062DA61DA6942EA0626DFE710B5012423
:10259000036A8C4023EA04030362036A8A401A43F5
:1025A000026210BD10B5044601220068FFF7EEFF7D
:1025B0002368064A0020934202BF5A6C42F400424C
:1025C0005A641A6842F001021A6010BD002C0140E2
:1025D00010B504460C290DD8DFE801F0070C0C0CEF
:1025E000170C0C0C1C0C0C0C21000268D36843F077
:1025F0000203D36020680122FFF7C8FF2268002091
:10260000136843F00103136010BD0268D36843F000
:102610000403EEE70268D36843F00803E9E70268C1
:10262000D36843F01003E4E790F83C3010B5012B79
:102630004FF0020318D080F83D3003680C685A68E8
:10264000496822F070025A605A6822435A609A68B8
:1026500022F080029A609A680A439A60012380F807
:102660003D30002380F83C30184610BD704770475D
:10267000034A0368934204BF00225A62704700BFB6
:102680000004004010B590B02822002106A800F0F8
:1026900025FC1422002101A800F020FC4FF4803317
:1026A0000122022407934FF400310E934FF4E013FC
:1026B00006A8069208910A920F930D94FFF728F945
:1026C0000F234FF4806201930023214601A8029456
:1026D000039304920593FFF7E9FA10B010BD0000D0
:1026E0002DE9804800244FF001084FF002094FF017
:1026F000040B91B0FEF796FCFFF7C4FF10220021F7
:1027000009A800F0EBFBBE4B04219A69BD4842F0DA
:1027100020029A619A69BC4E02F020020092009A4F
:102720009A694FF0804A42F004029A619A694FF424
:10273000805502F004020192019A9A69B34F42F067
:1027400008029A619B69002203F008030293029B2E
:10275000FFF7D8F800224FF4FE41AD48FFF7D2F85A
:1027600009A9A8480B94CDF824B0CDF82880CDF85D
:102770003090FEF7E7FF4FF4FE4309A9A448099300
:102780000B94CDF82880CDF83090FEF7DBFF214682
:10279000102205A800F0A2FB1C22214609A80394E0
:1027A000049400F09BFB082373604FF47A73304667
:1027B000F360B4603461B461C6F800A0FFF758FD5F
:1027C00005A930460595FFF799FB3046FFF76AFDEE
:1027D00003A9304603940494FFF726FF60230C22DC
:1027E00009A9304609930A940B940D94FFF7BAFD9A
:1027F000304600F093FA2146102205A800F06EFB47
:102800002146102209A80394049400F067FB482392
:10281000804A384687E80C004FF6FF73BC60FB60C7
:102820003C61BC61FFF724FD05A938460595FFF71B
:1028300065FB3846FFF750FD03A93846039404941E
:10284000FFF7F2FE0F230C2209A9384609940B94D6
:102850000C93CDF82880FFF711FE12236E4D6F49BF
:10286000284685E80A004FF430232B614FF44013CB
:10287000AC606B61EC602C766C76AC76EC762C7789
:102880006C77FEF705FC0C213846FFF7A1FE0C2102
:102890003046FFF787FE424659465A48FFF732F85E
:1028A0003F225F4B5F491A609C60DC60C3F8108078
:1028B0004FF4F073284681E818000C618C60CC60FE
:1028C000CC61C1F81880C1F82080FEF75CFC284676
:1028D000FEF7C5FC49462846FEF7B0FD3220FEF75C
:1028E000C5FBDC230024504ECAF840304F4B00217A
:1028F0001D682846FEF72AFB8046002800F0BB80B2
:1029000000224FF480714248DFF83CA1FEF7FAFF45
:1029100005F1004501224FF400713D48FEF7F2FF3A
:10292000CAF800502846FDF777FD31A3D3E900230C
:10293000FEF74CF80546002800F00A810C213348C8
:10294000FFF795FB3A4B3B4F18604FF40273584327
:10295000FEF706F93146FEF70FFA374B01461860CD
:1029600005464FF07E50FEF707FA34493860FEF70F
:102970004FF9FEF713FB324B214618702846FEF73D
:10298000DBFA00B13C604FF080452E4B2A6C3F686B
:102990001A603846FDF740FD8046DAF800008946A7
:1029A000FDF73AFD14A3D3E9002382468B46FDF7D9
:1029B00087FD02460B4640464946FDF7F3FF0028D7
:1029C00044D021463846FEF7B7FA00283ED140F2FF
:1029D000EE232A6C9A4200D92B644FF08042136C8C
:1029E000013313640220FEF741FB7FE7AFF3008061
:1029F0009A9999999999A93F2B8716D9CEF7EF3FC4
:102A00000010024000080140F40000209400002063
:102A1000000C014000040040500100200064004010
:102A20007C01002038000020002474492800002088
:102A300090000020D400002094010020000070428B
:102A4000DE000020F00000203000002050A3D3E979
:102A5000002350465946FDF733FD02460B464046DB
:102A60004946FDF7BDFF00283FF440AF4FF08042DC
:102A7000136C013BB5E721462846FEF785FA074669
:102A8000002875D001224FF480714548FEF73AFFC7
:102A90004246DFF834814FF400714148FEF732FFBF
:102AA000C8F800502846FDF7B7FC3BA3D3E9002344
:102AB000FDF78CFF054600284AD00C213948FFF766
:102AC000D6FA394B394D18604FF402735843FEF76C
:102AD00047F83146FEF750F9354B01461860074676
:102AE0004FF07E50FEF748F932492860FEF790F823
:102AF000FEF754FA304B214618703846FEF71CFAA0
:102B000000B12C604FF080472C4B3A6CD8F8008015
:102B10002D682B491A604046FEF77AF82946FEF7E1
:102B200033FA60B121462846FEF706FA38B93B6C05
:102B3000B3F57A7F24BF40F2E7333B644DE7214988
:102B40004046FEF765F801462846FEF71DFA8AE77B
:102B50002A464FF480711248FEF7D4FE2A464FF4FD
:102B600000710F48FEF7CEFE4FF080435D63BDE677
:102B700002464FF480710A48FEF7C4FE3A464FF40D
:102B800000710748FEF7BEFE4FF080435F63ADE67D
:102B90006ABC74931804F03F9A9999999999A93F3E
:102BA000000C01409400002090000020D400002080
:102BB0009401002000007042DE000020F0000020A0
:102BC00077BE7F3FC520803F2C0000200E4B82B097
:102BD0009A6942F001029A619A6902F00102009238
:102BE000009ADA6942F08052DA61DB69074A03F041
:102BF00080530193019B536823F0E06343F08063AB
:102C0000536002B0704700BF001002400000014056
:102C100010B5044686B01022002102A800F05EF92B
:102C20002268194B9A422DD103F5D633DA6902A9ED
:102C300042F00072DA61DA69144802F00072009220
:102C4000009A9A6942F004029A619B6903F00403B6
:102C50000193019B4FF400630293FEF773FD4FF461
:102C60008053029302230393032302A90748059389
:102C7000FEF768FD002214201146FEF70DFD14201A
:102C8000FEF73EFD06B010BD0064004000080140A4
:102C9000102210B5044688B000210DEB020000F0B0
:102CA0001DF92368B3F1804F0CD103F50433DA69C1
:102CB00042F00102DA61DB6903F001030193019B39
:102CC00008B010BD124A9342FAD1124B04A9DA6936
:102CD000114842F00202DA61DA6902F0020202925D
:102CE000029A9A6942F008029A619B6903F008030C
:102CF0000393039B02230493FEF724FD00221D206F
:102D00001146FEF7C9FC1D20FEF7FAFCD8E700BF0C
:102D10000004004000100240000C014010B50446C1
:102D200086B01022002102A800F0D8F82368B3F181
:102D3000804F13D103F504339A6902A942F00402CB
:102D40009A619B69064803F004030193019B0823E1
:102D50000293022303930593FEF7F4FC06B010BD23
:102D6000000801407047FEE7FEE7FEE7FEE7704718
:102D700070477047FEF768B910B5144C1448FEF759
:102D80007BFB2346134A00211148FEF7E1FA237822
:102D9000114A13708BB96078FDF7E6FE0F49FDF715
:102DA000EBFF00F100400E4B18600E4B0E4A0F492E
:102DB0000748BDE81040FEF77DBA012BF5D16078D9
:102DC000FDF7D2FE0549FDF7D7FFECE7DF00002055
:102DD00050010020340100206100002000007042FA
:102DE00028000020E8000020DE0000207C010020F8
:102DF0000148FFF763B900BF940000200F4B1A6829
:102E000042F001021A6059680D4A0A405A601A6875
:102E100022F0847222F480321A601A6822F480222E
:102E20001A605A6822F4FE025A604FF41F029A6038
:102E30004FF00062034B9A60704700BF00100240E1
:102E40000000FFF800ED00E0002103E00B4B5B58B1
:102E5000435004310A480B4B42189A42F6D30A4AAF
:102E600002E0002342F8043B084B9A42F9D3FFF7F3
:102E7000C5FF00F00FF8FFF733FC70472C2F000858
:102E8000000000200C0000200C0000209801002011
:102E9000FEE7000070B500250C4E0D4CA41BA410DD
:102EA000A54209D100F022F800250A4E0A4CA41BC5
:102EB000A410A54205D170BD56F8253098470135BC
:102EC000EEE756F8253098470135F2E7242F000841
:102ED000242F0008242F0008282F0008034602444E
:102EE000934200D1704703F8011BF9E7F8B500BF22
:102EF000F8BC08BC9E467047F8B500BFF8BC08BCDB
:042F00009E46704732
:102F040002030405060708090A0B0C0D0E0F101026
:102F14000000000000000000010203040607080985
:042F2400350100086B
:042F2800110100088B
:0C2F2C00010000001000000000A24A0498
:0400000508002E4978
:00000001FF
