:020000040800F2
:10000000005000201D230008592100085B21000832
:100010005D2100085F210008612100080000000048
:100020000000000000000000000000006321000844
:100030006521000800000000672100086921000810
:100040006523000865230008652300086523000870
:100050006523000865230008652300087D22000849
:100060006523000865230008652300086523000850
:100070006523000865230008652300086523000840
:100080006523000865230008652300086523000830
:1000900095220008652300086523000865230008F1
:1000A0006523000865230008652300086523000810
:1000B0006523000865230008652300086523000800
:1000C00065230008652300086523000865230008F0
:1000D00065230008652300086523000865230008E0
:1000E0006523000865230008652300080000000060
:1000F0000000000000000000000000000000000000
:0C01000000000000000000005FF808F1A3
:1001100010B5054C237833B9044B13B10448AFF341
:1001200000800123237010BD40000020000000006B
:10013000C023000808B5034B1BB103490348AFF3C4
:10014000008008BD0000000044000020C02300081B
:1001500081F0004102E000BF83F0004330B54FEA78
:1001600041044FEA430594EA050F08BF90EA020FE5
:100170001FBF54EA000C55EA020C7FEA645C7FEA78
:10018000655C00F0E2804FEA5454D4EB5555B8BF9B
:100190006D420CDD2C4480EA020281EA030382EA0C
:1001A000000083EA010180EA020281EA0303362D9E
:1001B00088BF30BD11F0004F4FEA01314FF4801C71
:1001C0004CEA113102D0404261EB410113F0004F83
:1001D0004FEA03334CEA133302D0524263EB43033A
:1001E00094EA050F00F0A780A4F10104D5F1200ED8
:1001F0000DDB02FA0EFC22FA05F2801841F1000133
:1002000003FA0EF2801843FA05F359410EE0A5F106
:1002100020050EF1200E012A03FA0EFC28BF4CF037
:10022000020C43FA05F3C01851EBE37101F00045ED
:1002300007D54FF0000EDCF1000C7EEB00006EEBFA
:100240000101B1F5801F1BD3B1F5001F0CD3490884
:100250005FEA30004FEA3C0C04F101044FEA4452DB
:1002600012F5800F80F09A80BCF1004F08BF5FEA62
:10027000500C50F1000041EB045141EA050130BD42
:100280005FEA4C0C404141EB010111F4801FA4F1E5
:100290000104E9D191F0000F04BF01460020B1FA3A
:1002A00081F308BF2033A3F10B03B3F120020CDA72
:1002B0000C3208DD02F1140CC2F10C0201FA0CF050
:1002C00021FA02F10CE002F11402D8BFC2F1200CB5
:1002D00001FA02F120FA0CFCDCBF41EA0C0190406B
:1002E000E41AA2BF01EB0451294330BD6FEA0404B4
:1002F0001F3C1CDA0C340EDC04F11404C4F120029F
:1003000020FA04F001FA02F340EA030021FA04F3B0
:1003100045EA030130BDC4F10C04C4F1200220FA07
:1003200002F001FA04F340EA0300294630BD21FA45
:1003300004F0294630BD94F0000F83F4801306BF0B
:1003400081F480110134013D4EE77FEA645C18BFFF
:100350007FEA655C29D094EA050F08BF90EA020F96
:1003600005D054EA000C04BF1946104630BD91EA8E
:10037000030F1EBF0021002030BD5FEA545C05D191
:100380004000494128BF41F0004130BD14F58004D0
:100390003CBF01F5801130BD01F0004545F0FE4144
:1003A00041F470014FF0000030BD7FEA645C1ABF79
:1003B000194610467FEA655C1CBF0B46024650EAB0
:1003C000013406BF52EA033591EA030F41F40021DC
:1003D00030BD00BF90F0000F04BF0021704730B562
:1003E0004FF4806404F132044FF000054FF0000137
:1003F00050E700BF90F0000F04BF0021704730B5F8
:100400004FF4806404F1320410F0004548BF4042CC
:100410004FF000013EE700BF42004FEAE2014FEA21
:1004200031014FEA02701FBF12F07F4393F07F4FFC
:1004300081F06051704732F07F4208BF704793F0FF
:100440007F4F04BF41F40021704730B54FF4607412
:1004500001F0004521F000411CE700BF50EA010215
:1004600008BF704730B54FF000050AE050EA0102BE
:1004700008BF704730B511F0004502D5404261EB2E
:1004800041014FF4806404F132045FEA915C3FF46F
:10049000D8AE4FF003025FEADC0C18BF03325FEA0C
:1004A000DC0C18BF033202EBDC02C2F1200300FABD
:1004B00003FC20FA02F001FA03FE40EA0E0021FAE2
:1004C00002F11444BDE600BF70B54FF0FF0C4CF4D0
:1004D000E06C1CEA11541DBF1CEA135594EA0C0F82
:1004E00095EA0C0F00F0DEF82C4481EA030621EABD
:1004F0004C5123EA4C5350EA013518BF52EA0335F8
:1005000041F4801143F4801338D0A0FB02CE4FF0A9
:100510000005E1FB02E506F00042E0FB03E54FF0D9
:100520000006E1FB03569CF0000F18BF4EF0010ED1
:10053000A4F1FF04B6F5007F64F5407404D25FEACD
:100540004E0E6D4146EB060642EAC62141EA555180
:100550004FEAC52040EA5E504FEACE2EB4F1FD0CC2
:1005600088BFBCF5E06F1ED8BEF1004F08BF5FEA40
:10057000500E50F1000041EB045170BD06F00046F2
:1005800046EA010140EA020081EA0301B4EB5C049F
:10059000C2BFD4EB0C0541EA045170BD41F4801197
:1005A0004FF0000E013C00F3AB8014F1360FDEBFBC
:1005B000002001F0004170BDC4F10004203C35DA98
:1005C0000C341BDC04F11404C4F1200500FA05F31B
:1005D00020FA04F001FA05F240EA020001F00042BC
:1005E00021F0004110EBD37021FA04F642EB060132
:1005F0005EEA430E08BF20EAD37070BDC4F10C045C
:10060000C4F1200500FA04F320FA05F001FA04F21F
:1006100040EA020001F0004110EBD37041F100010B
:100620005EEA430E08BF20EAD37070BDC4F1200516
:1006300000FA05F24EEA020E20FA04F301FA05F27E
:1006400043EA020321FA04F001F0004121FA04F226
:1006500020EA020000EBD3705EEA430E08BF20EAF6
:10066000D37070BD94F0000F0FD101F00046400030
:1006700041EB010111F4801F08BF013CF7D041EAB2
:10068000060195F0000F18BF704703F000465200B6
:1006900043EB030313F4801F08BF013DF7D043EA87
:1006A0000603704794EA0C0F0CEA135518BF95EA3D
:1006B0000C0F0CD050EA410618BF52EA4306D1D1C4
:1006C00081EA030101F000414FF0000070BD50EAE3
:1006D000410606BF1046194652EA430619D094EA6D
:1006E0000C0F02D150EA013613D195EA0C0F05D157
:1006F00052EA03361CBF104619460AD181EA0301AB
:1007000001F0004141F0FE4141F470014FF0000062
:1007100070BD41F0FE4141F4780170BD70B54FF0FD
:10072000FF0C4CF4E06C1CEA11541DBF1CEA13557D
:1007300094EA0C0F95EA0C0F00F0A7F8A4EB05045F
:1007400081EA030E52EA03354FEA013100F0888056
:100750004FEA03334FF0805545EA131343EA12631F
:100760004FEA022245EA111545EA10654FEA0026D4
:100770000EF000419D4208BF964244F1FD0404F58D
:10078000407402D25B084FEA3202B61A65EB0305E9
:100790005B084FEA32024FF480104FF4002CB6EBA6
:1007A000020E75EB030E22BFB61A754640EA0C0026
:1007B0005B084FEA3202B6EB020E75EB030E22BF66
:1007C000B61A754640EA5C005B084FEA3202B6EBA7
:1007D000020E75EB030E22BFB61A754640EA9C0066
:1007E0005B084FEA3202B6EB020E75EB030E22BF36
:1007F000B61A754640EADC0055EA060E18D04FEAF4
:10080000051545EA16754FEA06164FEAC30343EA93
:1008100052734FEAC2025FEA1C1CC0D111F4801F60
:100820000BD141EA00014FF000004FF0004CB6E759
:1008300011F4801F04BF01430020B4F1FD0C88BFF8
:10084000BCF5E06F3FF6AFAEB5EB030C04BFB6EB03
:10085000020C5FEA500C50F1000041EB045170BDF6
:100860000EF0004E4EEA113114EB5C04C2BFD4EB23
:100870000C0541EA045170BD41F480114FF0000EA7
:10088000013C90E645EA060E8DE60CEA135594EA23
:100890000C0F08BF95EA0C0F3FF43BAF94EA0C0F26
:1008A0000AD150EA01347FF434AF95EA0C0F7FF49B
:1008B00025AF104619462CE795EA0C0F06D152EAEF
:1008C00003353FF4FDAE1046194622E750EA4106D3
:1008D00018BF52EA43067FF4C5AE50EA41047FF4E4
:1008E0000DAF52EA43057FF4EBAE12E74FF0FF3C49
:1008F00006E000BF4FF0010C02E000BF4FF0010C1A
:100900004DF804CD4FEA410C7FEA6C5C4FEA430C92
:1009100018BF7FEA6C5C1BD001B050EA410C0CBFE1
:1009200052EA430C91EA030F02BF90EA020F002043
:10093000704710F1000F91EA030F58BF994208BFAA
:1009400090422CBFD8176FEAE37040F00100704767
:100950004FEA410C7FEA6C5C02D150EA013C07D1BE
:100960004FEA430C7FEA6C5CD6D152EA033CD3D009
:100970005DF8040B704700BF8446104662468C4603
:100980001946634600E000BF01B5FFF7B7FF002836
:1009900048BF10F1000F01BD4DF808EDFFF7F4FF5F
:1009A0000CBF012000205DF808FB00BF4DF808EDEA
:1009B000FFF7EAFF34BF012000205DF808FB00BF0D
:1009C0004DF808EDFFF7E0FF94BF012000205DF82F
:1009D00008FB00BF4DF808EDFFF7CEFF94BF0120E4
:1009E00000205DF808FB00BF4DF808EDFFF7C4FFDD
:1009F00034BF012000205DF808FB00BF4A0011D27F
:100A000012F5001211D20DD56FF47873B3EB625268
:100A10000ED44FEAC12343F0004343EA505323FA74
:100A200002F070474FF00000704750EA013002D1E9
:100A30004FF0FF3070474FF00000704738B50E4B55
:100A4000054618784FF47A73B3FBF0F30B4A10683D
:100A5000B0FBF3F000F092FB044658B90F2D09D813
:100A6000024629464FF0FF3000F046FB2046044B7B
:100A70001D6038BD0120FCE7000000203800002088
:100A800004000020074A08B51368032043F0100350
:100A9000136000F01FFB0020FFF7D0FF01F074FA95
:100AA000002008BD00200240034A044B11681B7857
:100AB0000B441360704700BF880000200000002036
:100AC000014B1868704700BF8800002038B5044605
:100AD000FFF7F6FF0546631C1EBF044B1B78E418A6
:100AE000FFF7EEFF401BA042FAD338BD0000002004
:100AF00038B5044600286ED090F820300BB901F0CC
:100B000065FA2268136823F002031360FFF7D8FF29
:100B1000054623685A68910751D41A6842F00102C9
:100B20001A60FFF7CDFF054623685A68D20754D5EF
:100B3000227E0020012A1A680CBF42F0800222F0B7
:100B400080021A60627E012A1A680CBF42F04002DD
:100B500022F040021A60A27E012A1A680CBF42F0FD
:100B6000200222F020021A60E27E012A1A680CBFDD
:100B700022F0100242F010021A60227F012A1A6845
:100B80000CBF42F0080222F008021A60627F012ABC
:100B90001A680CBF42F0040222F004021A60D4E981
:100BA00002210A4321690A4361690A4361680139E4
:100BB0000A43DA610123606284F8203038BDFFF710
:100BC0007FFF401B0A28A4D9636A43F400336362A1
:100BD000052384F820300120F0E7FFF771FF401B68
:100BE0000A28A1D9F0E790F8203070B5013B012B1D
:100BF0005FD801240368D3F8002242F00102C3F851
:100C000000224A69D3F81C5202F01F0004FA00F0D7
:100C1000C4432540C3F81C52CD6985BBD3F80C52A0
:100C2000CE682540C3F80C528D8803EBC20245EA1A
:100C30000645C2F840528E680D8845EA0645C2F85E
:100C400044528A696ABBD3F804222240C3F80422C2
:100C50000A6952BBD3F814222240C3F814220A6A4C
:100C6000012A02BFD3F81C221043C3F81C02002043
:100C7000D3F8002222F00102C3F8002270BD012D3A
:100C8000DFD1D3F80C520E680543C3F80C528D889F
:100C900003EBC20245EA0645C2F840528E688D89D0
:100CA000CBE7D3F804220243D0E7D3F8142202435F
:100CB000D3E7436A43F4802343620120DEE738B57B
:100CC00090F820300446012B1FD10223026880F8DF
:100CD0002030136823F001031360FFF7F1FE05468F
:100CE0002368586810F0010001D1606238BDFFF739
:100CF000E7FE401B0A28F3D9636A43F400336362BA
:100D0000052384F820300120F0E7436A43F40023F0
:100D10004362F8E7F0B590F820500668013D012DD8
:100D2000B46840D814F0E05F39D0C4F30164032CF8
:100D30004FF0010505D1436A43F4000343620120EB
:100D400027E0A5401D60D1E9020704F1180308BBA4
:100D5000086847EA40501B01F05008692401331924
:100D6000C3F884010020097D3444012902BFD3F86F
:100D7000841141F48071C3F884115168C4F88C1156
:100D80001268C4F88821D3F8802142F00102C3F828
:100D90008021F0BD4D68384340EAC500DBE7436A77
:100DA00043F40013CAE7436A43F48023C6E7F0B56F
:100DB00090F82040013C012C6BD8066841B9F468DA
:100DC000A40707D1436A43F400134362012055E0AE
:100DD0003469F5E70C013519D5F8B07107F004074F
:100DE0009760002F4BD1D5F8B0717F0D1760D5F803
:100DF000B071264407F00207D760D5F8B47107F048
:100E00000F071761D5F8B471D5F8B451C7F30727A8
:100E10002D0C97615561D6F8B8211A7002682244EA
:100E2000D2F8B821120A5A7002682244D2F8B821C6
:100E3000120C9A7002682244D2F8B821120EDA70AD
:100E400002682244D2F8BC211A7102682244D2F806
:100E5000BC21120A5A7102682244D2F8BC21120C39
:100E60009A7102681444D4F8BC21120EDA71036836
:100E700051B9DA6842F02002DA600020F0BDD5F8FE
:100E8000B071FF085760B2E71A6942F020021A6198
:100E9000F3E7436A43F4802397E790F82030013B5F
:100EA000012B05D80268002053691943516170472E
:100EB000436A43F4802343620120704770477047C0
:100EC000704770477047704770477047704770476A
:100ED0007047704770472DE9F84F036805465E6913
:100EE000D3F8049016F001049F68D3F80CB0D3F83F
:100EF00010A0D3F8188022D017F0010407D00122E7
:100F0000B9079A6040F1A380FFF7D8FF0024FB05E2
:100F100009D54FF480722B68B8059A6040F1A5801E
:100F20002846FFF7CCFFFB0309D54FF480322B682E
:100F3000B8039A6040F1A7802846FFF7C1FF330746
:100F400007D51BF0100F1FBF10222B6844F400744C
:100F5000DA60770708D51BF0080F05D008222B6848
:100F60002846DA60FFF7B1FFB00706D52B68DB68CB
:100F7000990702D02846FFF7A7FF720607D51AF097
:100F8000100F1FBF10222B6844F480641A61B3064F
:100F900008D51AF0080F05D008222B6828461A61D8
:100FA000FFF795FFF70606D52B681B69980702D057
:100FB0002846FFF78BFFB10308D519F0100F05D0B5
:100FC00010222B6828465A60FFF782FFF20308D5EB
:100FD00019F0080F05D008222B6828465A60FFF741
:100FE00078FF33042AD519F0040F2A6824D0F705B6
:100FF00004D518F0010F18BF44F00104B00504D562
:1010000018F0020F18BF44F00204710504D518F05F
:10101000040F18BF44F0040433050DD518F0700315
:101020000AD0302B4CD03CD8102B43D0202B44D0AE
:10103000936923F070039361042353602CB16B6AAE
:1010400028461C436C62FFF745FFBDE8F88F7A071E
:1010500005D417F0080405D1FFF733FF57E74FF425
:10106000006454E74FF4805451E7790502D544F405
:10107000005458E73A0502D544F4804453E7284623
:10108000FFF720FF4FE7790302D544F4004456E709
:101090003A0302D544F4803451E72846FFF713FFA2
:1010A0004DE7502B0FD0602B10D0402BC0D144F017
:1010B0004004BDE744F00804BAE744F01004B7E781
:1010C00044F02004B4E744F08004B1E744F48074B1
:1010D000AEE70000074A0002D36800F4E06023F4A2
:1010E000E0631B041B0C43F0BF6343F40033034372
:1010F000D360704700ED00E0174B70B5DC684FF02F
:10110000FF36C4F30224C4F10705042D04F10403DF
:1011100028BF0425062B98BF002406FA05F388BFD4
:10112000033C21EA0303A34006FA04F422EA040480
:10113000002843EA0403A8BF00F160404FEA03130C
:10114000B8BF064ADBB2ABBF00F5614000F00F004C
:1011500080F80033135470BD00ED00E014ED00E0A2
:10116000002808DB0123420900F01F0003FA00F009
:10117000014B43F82200704700E100E00138B0F174
:10118000807F0AD2F021064B064A586082F823106D
:101190000020072298601A6070470120704700BF46
:1011A00010E000E000ED00E02DE9F74F00242646B6
:1011B000654BDFF8A4C1DFF8A4E10A6832FA06F54E
:1011C00002D103B0BDE8F08F4FF0010808FA06F82D
:1011D00002EA080290457ED14D68122D00F0A980E8
:1011E00000F28280022D00F0A18076D8002D00F060
:1011F0008880012D00F098804FF00F09FF2A93BFDF
:10120000824606F18045083DD0F800B092BFB50097
:10121000D0F804B0AD0009FA05F82BEA080804FA82
:1012200005F588BF00F1040A48EA0505CAF8005030
:10123000D1F804A01AF0805F4DD0444F26F0030887
:10124000BD6908F1804845F00105BD61BD6908F53B
:10125000803805F00105019506F0030B019D4FEA6A
:101260008B0BD8F8085009FA0BF925EA0909384D13
:10127000A84263D005F58065A84261D005F5806578
:10128000A8425FD005F58065A8420CBF0325042560
:1012900005FA0BF545EA0905C8F808501D681AF467
:1012A000803F14BF154395431D605D681AF4003FED
:1012B00014BF154395435D609D681AF4801F14BFE9
:1012C000154395439D60DD681AF4001F14BF2A433F
:1012D00025EA0202DA6001366FE7032D22D0112DD4
:1012E0008AD1CC68043487E71A4FBD4209D012D89E
:1012F000DFF86C904D4504D009F580394D457FF4F9
:101300007BAF8C68C4B1012C0CBFC0F81080C0F852
:101310001480082470E76545F3D07545F1D0DFF8F7
:101320004490EBE7002467E7CC6865E7CC680834B5
:1013300062E7CC680C345FE704245DE70025A7E78B
:101340000125A5E70225A3E70004014000100240A3
:101350000008014000002110000031100000321090
:1013600000001110000022100AB101617047090449
:10137000FBE7704708B5044B5969014202D0586138
:10138000FFF7F7FF08BD00BF000401402DE9F3415E
:10139000054608B901203CE00368DB0710D42B6840
:1013A0009F075DD42B68190700F194802B685A07BA
:1013B00000F1BE80E869002840F02C81002028E080
:1013C0008F4C636803F00C03042B07D0636803F0B1
:1013D0000C03082B09D16368DE0306D523689C0340
:1013E000DDD56B68002BDAD1D4E76B68B3F5803FAD
:1013F00012D1236843F480332360FFF761FB064674
:1014000023689803CBD4FFF75BFB801B6428F7D9D4
:10141000032002B0BDE8F0819BB9236823F4803338
:101420002360236823F480232360FFF749FB0646EB
:1014300023689903B3D5FFF743FB801B6428F7D9D2
:10144000E6E7B3F5A02F236803D143F4802323609C
:10145000CFE723F480332360236823F48023CBE792
:10146000674C636813F00C0F07D0636803F00C033C
:10147000082B10D16368DA030DD423689B0702D5CB
:101480002B69012B86D123686A6923F0F80343EAAC
:10149000C203236086E72A695A4B6AB101221A60A7
:1014A000FFF70EFB064623689F07ECD4FFF708FB07
:1014B000801B0228F7D9ABE71A60FFF701FB06464D
:1014C000236898077FF56EAFFFF7FAFA801B0228B2
:1014D000F6D99DE7AA694A4C4B4BDAB101221A6052
:1014E000FFF7EEFA0646636A9B070DD54FF4FA52F2
:1014F000464B1B68B3FBF2F3019300BF019B5A1EDE
:101500000192002BF9D151E7FFF7DAFA801B02288C
:10151000E9D97DE71A60FFF7D3FA0646636A9F07A9
:101520007FF544AFFFF7CCFA801B0228F6D96FE7AE
:10153000334CE369D80024D40127E36943F0805396
:10154000E361E36903F080530093009B304E3368FE
:10155000D90518D5EB68012B26D1236A43F0010386
:101560002362FFF7ADFA41F288368046236A9B0773
:101570003FD5002F3FF41EAFE36923F08053E361B2
:1015800018E70027E2E7336843F480733360FFF71E
:1015900097FA80463368DA05DCD4FFF791FAA0EBBE
:1015A00008006428F6D933E7ABB9236A41F28838DA
:1015B00023F001032362236A23F004032362FFF76D
:1015C0007FFA0646236A9807D3D5FFF779FA801B7E
:1015D0004045F7D91CE7052B236A03D143F00403E8
:1015E0002362BAE723F001032362236A23F0040392
:1015F000B6E7FFF765FAA0EB0800B042B6D907E7F7
:1016000000100240000042428004424238000020A4
:10161000007000402A4B5A681C4602F00C02082A4F
:101620003DD00023274E022833602BD1FFF748FA24
:101630000746236899011FD42B6AB3F5803F05D173
:101640006268A96822F400320A436260696A6268CB
:101650000B4322F474121343636001233360FFF7DA
:101660002FFA054623689A013FF5A8AEFFF728FA3E
:10167000401B0228F6D9CBE6FFF722FAC01B02284E
:10168000D7D9C5E6FFF71CFA054623689B017FF50D
:1016900095AEFFF715FA401B0228F6D9B8E60128E7
:1016A0003FF4B7AE58682B6A00F480329A427FF458
:1016B00071AE6B6A00F47010C01A18BF0120A8E662
:1016C000001002406000424230B51A4B87B002ACB5
:1016D00003F11005224618685968083303C2AB426B
:1016E0001446F7D140F201231349ADF804304B689A
:1016F00003F00C02042A1BD0082A02D00F4807B0BE
:1017000030BDC3F3834206A80244DB0312F8102C59
:101710000BD54B680A48C3F34043504306AA134411
:1017200013F8143CB0FBF3F0E9E706485043E6E752
:101730000348E4E7D82300080010024000127A00B2
:101740000024F40000093D002DE9F0410D46044657
:1017500010B90120BDE8F081444A136803F0070383
:101760008B4228D321688E0730D4CA0743D43F4A1E
:10177000136803F00703AB4265D822683C4D12F0B2
:10178000040F6CD1130706D56B68226923F46053EC
:1017900043EAC2036B60FFF797FF6B68354AC3F3F8
:1017A0000313D35CD840344B1860344B1868FFF7F0
:1017B00045F90020CEE7136823F007030B431360BD
:1017C000136803F007038B42C3D1CBE7284B11F01A
:1017D000040F1EBF5A6842F4E0625A60080742BF15
:1017E0005A6842F460525A605A68A06822F0F002C7
:1017F00002435A60B9E762681D4E012A33681AD164
:1018000013F4003FA5D0736841F2883823F0030336
:1018100013437360FFF754F907467368626803F077
:101820000C03B3EB820FA2D0FFF74AF9C01B40456F
:10183000F3D903208EE7022A02D113F0007FE1E7FB
:1018400013F0020FDEE7136823F007032B43136046
:10185000136803F00703AB427FF47BAF8DE76B683F
:10186000E16823F4E0630B436B608BE700200240E8
:1018700000100240E8230008380000200400002087
:10188000036A70B523F001030362036A4468826946
:101890000D6822F073022A438D6823F002032B4364
:1018A0000A4DA8420BD1CD6823F008032B4324F442
:1018B0004074D1E90556354323F004032C434460BA
:1018C00082614A684263036270BD00BF002C014020
:1018D000036A70B523F480730362036A4468C269C3
:1018E0000D6822F073022A438D6823F4007343EAE3
:1018F00005230B4DA8420DD1CD6823F4006343EAC4
:10190000052324F44054D1E90556354323F480637C
:1019100044EA05144460C2614A68C263036270BD50
:10192000002C0140036A30B523F480530362036A3C
:101930004468C2690D6822F4E64242EA05228D68D5
:1019400023F4005343EA0533064DA84202BF4D6914
:1019500024F4804444EA85144460C2614A68026405
:10196000036230BD002C0140704700001A4A036832
:1019700090420AD0B0F1804F07D0A2F59432904245
:1019800003D002F58062904215D14A6823F07003BB
:101990001343114A90420AD0B0F1804F07D0A2F50C
:1019A0009432904203D002F58062904203D1CA681B
:1019B00023F4407313434A6923F080031343036005
:1019C0008B68C3620B688362034B984204BF0B6948
:1019D0000363012343617047002C014010B50446A6
:1019E000A0B190F83D3003F0FF021BB980F83C2015
:1019F00000F02CFB0223206884F83D30211DFFF706
:101A0000B5FF0123002084F83D3010BD0120FCE724
:101A100010B50446A0B190F83D3003F0FF021BB9A9
:101A200080F83C20FFF7A0FF0223206884F83D30B7
:101A3000211DFFF79BFF0123002084F83D3010BDDE
:101A40000120FCE7036A70B523F010030362036A08
:101A5000446882690D6822F4E64242EA05228D68F4
:101A600023F0200343EA05130B4DA8420DD1CD68A6
:101A700023F0800343EA051324F44064D1E90556BA
:101A8000354323F0400344EA8504446082614A6898
:101A90008263036270BD00BF002C014038B590F82E
:101AA0003C300446012B4FF0020025D0012384F87E
:101AB0003D0084F83C300C2A18D8DFE802F0071704
:101AC00017171E1717172F17171740002068FFF753
:101AD000D7FE236809699A6942F008029A619A69F7
:101AE00022F004029A619A690A439A610123002054
:101AF00084F83D3084F83C0038BD2068FFF7A2FF31
:101B0000236809699A6942F400629A619A6922F429
:101B100080629A619A6942EA0122E6E72068FFF74B
:101B2000D7FE23680969DA6942F00802DA61DA69E6
:101B300022F00402DA61DA690A43DA61D6E7206842
:101B4000FFF7F0FE23680969DA6942F40062DA619E
:101B5000DA6922F48062DA61DA6942EA0122ECE7AA
:101B600010B584680A4324F47F4442EA03232343E4
:101B7000836010BD90F83C3070B5012B04464FF0E7
:101B8000020019D0012384F83D00206884F83C301D
:101B9000836823F47F4323F0770383600B68402B33
:101BA00065D015D8102B0CD007D853B101230020D5
:101BB00084F83D3084F83C0070BD202B01D0302BE0
:101BC000F4D1826843F0070322F0700213431AE055
:101BD000602B34D019D8502BE8D14A68CE68016AFE
:101BE000056A21F00A0125F00105056283690A43AF
:101BF00023F0F00343EA061383610262836823F053
:101C0000700343F057038360D0E7702B0CD0B3F51B
:101C1000005FCBD1CB68D1E90121FFF7A1FF22689A
:101C2000936843F4804308E0CB68D1E90121FFF7D2
:101C300097FF2268936843F077039360B6E74D6897
:101C4000CE68016A21F0100101628269036A22F400
:101C5000704223F0A00343EA051342EA0632826190
:101C60000362836823F0700343F06703CBE74A689D
:101C7000CE68016A056A21F00A0125F001050562B6
:101C800083690A4323F0F00343EA06138361026287
:101C9000836823F0700343F04703B4E710B50124D1
:101CA000036A01F01F018C4023EA04030362036A04
:101CB0008A401A43026210BD10B504460122006832
:101CC000FFF7ECFF2368094A0020934202BF5A6CD9
:101CD00042F400425A649A6802F00702062A1EBFC4
:101CE0001A6842F001021A6010BD00BF002C0140CA
:101CF000FFF7E2BF90F83C3030B5012B4FF0020304
:101D000014D0046880F83D306268A3680D684968A3
:101D100022F0700223F080030B432A436260A36029
:101D2000012380F83D30002380F83C30184630BD58
:101D300010B590B01022002109A800F039FB142240
:101D4000002101A800F034FB022401224FF480336B
:101D50004FF40031CDE90623CDE90D434FF4E013F4
:101D600006A808910A920F93FFF710FB0F234FF478
:101D70008062CDE901340023214601A8CDE9033278
:101D80000593FFF7E1FC10B010BD000080B5002402
:101D90004FF0010802274FF0040990B0FEF772FEE1
:101DA000FFF7C6FF1022002109A800F001FB6A4BD3
:101DB00004219A69694842F020029A619A694FF0B9
:101DC000804A02F020020092009A9A69644E42F022
:101DD00004029A619A69634D02F004020192019A29
:101DE0009A6942F008029A619B69002203F0080395
:101DF0000293029BFFF7B8FA00224FF4FE415A48C3
:101E0000FFF7B2FA09A95548CDE90B47CDE9099882
:101E1000FFF7CAF9554B09A95348CDE90A37099785
:101E2000FFF7C2F94FF4FE4309A94F48CDE909383D
:101E3000CDE90B47FFF7B8F9224621460720FFF707
:101E40005BF90720FFF78CF92146102205A800F066
:101E5000AFFA1C22214609A8CDE9034400F0A8FAF4
:101E60000823C6E900A340F2E7333046C6E903344D
:101E7000B460B461FFF7B2FD4FF4805305A930465A
:101E80000593FFF777FE3046FFF7C2FD03A9304602
:101E9000CDE90344FFF72EFF60230C2209A9304649
:101EA000CDE909340B940D94FFF7F8FD304600F0AE
:101EB000DFF82F4B2846C5E900394FF4C023C5E9A8
:101EC0000244C5E904342C766C76AC76EC762C773B
:101ED0006C77FEF70DFE0C213046FFF709FF4246F6
:101EE00049461E48FFF740FA224A234B1268C3E9CD
:101EF00002441A60C3F81090204B21491B68284601
:101F00005B01C1E900340C61C1E90244C1E9068406
:101F1000C1F82080FEF767FE2846FEF7D0FE39465E
:101F20002846FEF7BAFF3220FEF7D0FDDC230E4C28
:101F3000144DCAF8403001224FF480712046FFF75B
:101F400013FA00224FF400712046FFF70DFA4FF00C
:101F500080432A881A64EEE700100240000801401E
:101F600004010020C8000020000C014000001110F6
:101F7000006400400C0000206401002008000020E4
:101F800090000020700000200E4B82B09A6942F051
:101F900001029A619A6902F001020092009ADA69DC
:101FA00042F08052DA61DB69074A03F08053019303
:101FB000019B536823F0E06343F08063536002B0F9
:101FC000704700BF001002400000014010B50446F9
:101FD00086B01022002102A800F0EAF92268194B0D
:101FE0009A422DD103F5D633DA6902A942F0007284
:101FF000DA61DA69144802F000720092009A9A6974
:1020000042F004029A619B6903F004030193019B6F
:102010004FF400630293FFF7C7F84FF48052022396
:10202000CDE90223032302A907480593FFF7BCF873
:10203000002214201146FFF75FF81420FFF790F8F4
:1020400006B010BD0064004000080140036882B083
:10205000B3F1804F0AD103F50433DA6942F001028B
:10206000DA61DB6903F001030193019B02B0704761
:1020700010B5044686B01022002102A800F098F99D
:102080002368B3F1804F13D103F504339A6902A991
:1020900042F004029A619B69082203F00403019351
:1020A000019B02230348CDE902230593FFF77CF847
:1020B00006B010BD000801402DE9F047FEF74CF8CE
:1020C000DFF890A08046DAE900238946FEF744F85D
:1020D0001B4BD3E90023FEF721FB1A4BD3E9002366
:1020E000FEF7F2F9184B0446D3E900230D464046AB
:1020F0004946FEF7E9F902460B4620462946FEF717
:102100002DF8124B0646D3E900450F4602460B4612
:1021100020462946FEF74AFC58B90D4B3246D3E912
:1021200000453B4620462946FEF75EFC08B934468A
:102130003D46CAE9008920462946BDE8F08700BF30
:10214000200000201000002018000020280000209F
:1021500030000020800000207047FEE7FEE7FEE729
:10216000FEE77047704770472DE9F843FEF79CFC87
:10217000FEF7A6FC6423B0FBF3F202FB1300002879
:1021800059D1314C314D23780133DBB2237028888B
:10219000FEF730F92AA3D3E90023FEF795F9FEF7FD
:1021A0002DFC2B4AC0B2107011782A4B197021787F
:1021B000294C59702988997029881078090AD97092
:1021C000FEF708F906460F46244B1878FEF702F989
:1021D00032463B46FFF770FF214BC3E90001D4E9CB
:1021E0000023FDF7BBFF804689461E4BC4E90089EA
:1021F000D3E9006732463B46FEF7F6FB10B1C4E96F
:1022000000670AE0184B4046D3E90067494632466A
:102210003B46FEF7CBFB0028F1D1D4E90001FEF7E5
:10222000EDFB124B0B4A18801149124B1248FEF776
:1022300071FD00232B80BDE8F88300BFAFF3008061
:1022400048E17A14AE47F13FF0000020440100203D
:102250007C01002064000020780000207200002033
:1022600068000020280000203000002070000020BE
:102270006401002000010020C800002008B50220F1
:10228000FFF778F8024A138801339BB2138008BD28
:102290004401002010B5094C0948FEF71CFE2346F6
:1022A000084A00210648FEF782FD2378064A012BE2
:1022B00013709EBF6278054B1A7010BD5C00002041
:1022C000C800002048010020B80000207200002053
:1022D0000F4B1A6842F001021A6059680D4A0A4011
:1022E0005A601A6822F0847222F480321A601A68E6
:1022F00022F480221A605A6822F4FE025A604FF4D7
:102300001F029A604FF00062034B9A60704700BF53
:10231000001002400000FFF800ED00E0002103E0A3
:102320000B4B5B58435004310A480B4B42189A42FE
:10233000F6D30A4A02E0002342F8043B084B9A42D3
:10234000F9D3FFF7C5FF00F00FF8FFF71FFD704747
:1023500000240008000000203C0000204000002075
:1023600080010020FEE7000070B500250C4E0D4CEA
:10237000A41BA410A54209D100F022F800250A4EA2
:102380000A4CA41BA410A54205D170BD56F82530F7
:1023900098470135EEE756F8253098470135F2E7C2
:1023A000F8230008F8230008F8230008FC2300089D
:1023B00003460244934200D1704703F8011BF9E73A
:1023C000F8B500BFF8BC08BC9E467047F8B500BF22
:0823D000F8BC08BC9E467047F2
:1023D80002030405060708090A0B0C0D0E0F10105E
:1023E80000000000000000000102030406070809BD
:0423F80035010008A3
:0423FC0011010008C3
:1024000001000000100000003F0000003A00000042
:10241000666666666666E63F666666666666E63FAA
:10242000000000000000F03F0000000000388F4076
:0C2430000000000000388FC000A24A0429
:040000050800231DAF
:00000001FF
