:020000040800F2
:100000000050002065310008993000089B3000083E
:100010009D3000089F300008A1300008000000005B
:10002000000000000000000000000000A3300008F5
:10003000A530000800000000A7300008A930000823
:10004000AD310008AD310008AD310008AD31000818
:10005000AD310008AD310008AD310008AD31000808
:10006000AD310008AD310008AD310008AD310008F8
:10007000AD310008AD310008AD310008AD310008E8
:10008000AD310008AD310008AD310008AD310008D8
:10009000AD300008AD310008AD310008AD310008C9
:1000A000AD310008AD310008AD310008AD310008B8
:1000B000AD3100080D310008AD310008AD31000848
:1000C000AD310008AD310008AD310008AD31000898
:1000D000AD310008AD310008AD310008AD31000888
:1000E000AD310008AD310008AD310008000000005E
:1000F0000000000000000000000000000000000000
:0C01000000000000000000005FF808F1A3
:1001100010B5054C237833B9044B13B10448AFF341
:1001200000800123237010BD1C000020000000008F
:100130000832000808B5034B1BB103490348AFF36D
:10014000008008BD000000002000002008320008E8
:1001500081F0004102E000BF83F0004330B54FEA78
:1001600041044FEA430594EA050F08BF90EA020FE5
:100170001FBF54EA000C55EA020C7FEA645C7FEA78
:10018000655C00F0E2804FEA5454D4EB5555B8BF9B
:100190006D420CDD2C4480EA020281EA030382EA0C
:1001A000000083EA010180EA020281EA0303362D9E
:1001B00088BF30BD11F0004F4FEA01314FF4801C71
:1001C0004CEA113102D0404261EB410113F0004F83
:1001D0004FEA03334CEA133302D0524263EB43033A
:1001E00094EA050F00F0A780A4F10104D5F1200ED8
:1001F0000DDB02FA0EFC22FA05F2801841F1000133
:1002000003FA0EF2801843FA05F359410EE0A5F106
:1002100020050EF1200E012A03FA0EFC28BF4CF037
:10022000020C43FA05F3C01851EBE37101F00045ED
:1002300007D54FF0000EDCF1000C7EEB00006EEBFA
:100240000101B1F5801F1BD3B1F5001F0CD3490884
:100250005FEA30004FEA3C0C04F101044FEA4452DB
:1002600012F5800F80F09A80BCF1004F08BF5FEA62
:10027000500C50F1000041EB045141EA050130BD42
:100280005FEA4C0C404141EB010111F4801FA4F1E5
:100290000104E9D191F0000F04BF01460020B1FA3A
:1002A00081F308BF2033A3F10B03B3F120020CDA72
:1002B0000C3208DD02F1140CC2F10C0201FA0CF050
:1002C00021FA02F10CE002F11402D8BFC2F1200CB5
:1002D00001FA02F120FA0CFCDCBF41EA0C0190406B
:1002E000E41AA2BF01EB0451294330BD6FEA0404B4
:1002F0001F3C1CDA0C340EDC04F11404C4F120029F
:1003000020FA04F001FA02F340EA030021FA04F3B0
:1003100045EA030130BDC4F10C04C4F1200220FA07
:1003200002F001FA04F340EA0300294630BD21FA45
:1003300004F0294630BD94F0000F83F4801306BF0B
:1003400081F480110134013D4EE77FEA645C18BFFF
:100350007FEA655C29D094EA050F08BF90EA020F96
:1003600005D054EA000C04BF1946104630BD91EA8E
:10037000030F1EBF0021002030BD5FEA545C05D191
:100380004000494128BF41F0004130BD14F58004D0
:100390003CBF01F5801130BD01F0004545F0FE4144
:1003A00041F470014FF0000030BD7FEA645C1ABF79
:1003B000194610467FEA655C1CBF0B46024650EAB0
:1003C000013406BF52EA033591EA030F41F40021DC
:1003D00030BD00BF90F0000F04BF0021704730B562
:1003E0004FF4806404F132044FF000054FF0000137
:1003F00050E700BF90F0000F04BF0021704730B5F8
:100400004FF4806404F1320410F0004548BF4042CC
:100410004FF000013EE700BF42004FEAE2014FEA21
:1004200031014FEA02701FBF12F07F4393F07F4FFC
:1004300081F06051704732F07F4208BF704793F0FF
:100440007F4F04BF41F40021704730B54FF4607412
:1004500001F0004521F000411CE700BF50EA010215
:1004600008BF704730B54FF000050AE050EA0102BE
:1004700008BF704730B511F0004502D5404261EB2E
:1004800041014FF4806404F132045FEA915C3FF46F
:10049000D8AE4FF003025FEADC0C18BF03325FEA0C
:1004A000DC0C18BF033202EBDC02C2F1200300FABD
:1004B00003FC20FA02F001FA03FE40EA0E0021FAE2
:1004C00002F11444BDE600BF70B54FF0FF0C4CF4D0
:1004D000E06C1CEA11541DBF1CEA135594EA0C0F82
:1004E00095EA0C0F00F0DEF82C4481EA030621EABD
:1004F0004C5123EA4C5350EA013518BF52EA0335F8
:1005000041F4801143F4801338D0A0FB02CE4FF0A9
:100510000005E1FB02E506F00042E0FB03E54FF0D9
:100520000006E1FB03569CF0000F18BF4EF0010ED1
:10053000A4F1FF04B6F5007F64F5407404D25FEACD
:100540004E0E6D4146EB060642EAC62141EA555180
:100550004FEAC52040EA5E504FEACE2EB4F1FD0CC2
:1005600088BFBCF5E06F1ED8BEF1004F08BF5FEA40
:10057000500E50F1000041EB045170BD06F00046F2
:1005800046EA010140EA020081EA0301B4EB5C049F
:10059000C2BFD4EB0C0541EA045170BD41F4801197
:1005A0004FF0000E013C00F3AB8014F1360FDEBFBC
:1005B000002001F0004170BDC4F10004203C35DA98
:1005C0000C341BDC04F11404C4F1200500FA05F31B
:1005D00020FA04F001FA05F240EA020001F00042BC
:1005E00021F0004110EBD37021FA04F642EB060132
:1005F0005EEA430E08BF20EAD37070BDC4F10C045C
:10060000C4F1200500FA04F320FA05F001FA04F21F
:1006100040EA020001F0004110EBD37041F100010B
:100620005EEA430E08BF20EAD37070BDC4F1200516
:1006300000FA05F24EEA020E20FA04F301FA05F27E
:1006400043EA020321FA04F001F0004121FA04F226
:1006500020EA020000EBD3705EEA430E08BF20EAF6
:10066000D37070BD94F0000F0FD101F00046400030
:1006700041EB010111F4801F08BF013CF7D041EAB2
:10068000060195F0000F18BF704703F000465200B6
:1006900043EB030313F4801F08BF013DF7D043EA87
:1006A0000603704794EA0C0F0CEA135518BF95EA3D
:1006B0000C0F0CD050EA410618BF52EA4306D1D1C4
:1006C00081EA030101F000414FF0000070BD50EAE3
:1006D000410606BF1046194652EA430619D094EA6D
:1006E0000C0F02D150EA013613D195EA0C0F05D157
:1006F00052EA03361CBF104619460AD181EA0301AB
:1007000001F0004141F0FE4141F470014FF0000062
:1007100070BD41F0FE4141F4780170BD70B54FF0FD
:10072000FF0C4CF4E06C1CEA11541DBF1CEA13557D
:1007300094EA0C0F95EA0C0F00F0A7F8A4EB05045F
:1007400081EA030E52EA03354FEA013100F0888056
:100750004FEA03334FF0805545EA131343EA12631F
:100760004FEA022245EA111545EA10654FEA0026D4
:100770000EF000419D4208BF964244F1FD0404F58D
:10078000407402D25B084FEA3202B61A65EB0305E9
:100790005B084FEA32024FF480104FF4002CB6EBA6
:1007A000020E75EB030E22BFB61A754640EA0C0026
:1007B0005B084FEA3202B6EB020E75EB030E22BF66
:1007C000B61A754640EA5C005B084FEA3202B6EBA7
:1007D000020E75EB030E22BFB61A754640EA9C0066
:1007E0005B084FEA3202B6EB020E75EB030E22BF36
:1007F000B61A754640EADC0055EA060E18D04FEAF4
:10080000051545EA16754FEA06164FEAC30343EA93
:1008100052734FEAC2025FEA1C1CC0D111F4801F60
:100820000BD141EA00014FF000004FF0004CB6E759
:1008300011F4801F04BF01430020B4F1FD0C88BFF8
:10084000BCF5E06F3FF6AFAEB5EB030C04BFB6EB03
:10085000020C5FEA500C50F1000041EB045170BDF6
:100860000EF0004E4EEA113114EB5C04C2BFD4EB23
:100870000C0541EA045170BD41F480114FF0000EA7
:10088000013C90E645EA060E8DE60CEA135594EA23
:100890000C0F08BF95EA0C0F3FF43BAF94EA0C0F26
:1008A0000AD150EA01347FF434AF95EA0C0F7FF49B
:1008B00025AF104619462CE795EA0C0F06D152EAEF
:1008C00003353FF4FDAE1046194622E750EA4106D3
:1008D00018BF52EA43067FF4C5AE50EA41047FF4E4
:1008E0000DAF52EA43057FF4EBAE12E74FF0FF3C49
:1008F00006E000BF4FF0010C02E000BF4FF0010C1A
:100900004DF804CD4FEA410C7FEA6C5C4FEA430C92
:1009100018BF7FEA6C5C1BD001B050EA410C0CBFE1
:1009200052EA430C91EA030F02BF90EA020F002043
:10093000704710F1000F91EA030F58BF994208BFAA
:1009400090422CBFD8176FEAE37040F00100704767
:100950004FEA410C7FEA6C5C02D150EA013C07D1BE
:100960004FEA430C7FEA6C5CD6D152EA033CD3D009
:100970005DF8040B704700BF8446104662468C4603
:100980001946634600E000BF01B5FFF7B7FF002836
:1009900048BF10F1000F01BD4DF808EDFFF7F4FF5F
:1009A0000CBF012000205DF808FB00BF4DF808EDEA
:1009B000FFF7EAFF34BF012000205DF808FB00BF0D
:1009C0004DF808EDFFF7E0FF94BF012000205DF82F
:1009D00008FB00BF4DF808EDFFF7CEFF94BF0120E4
:1009E00000205DF808FB00BF4DF808EDFFF7C4FFDD
:1009F00034BF012000205DF808FB00BF80F00040FC
:100A000002E000BF81F0004142001FBF5FEA4103E6
:100A100092EA030F7FEA226C7FEA236C6AD04FEAE6
:100A20001262D2EB1363C1BFD2184140484041402B
:100A3000B8BF5B42192B88BF704710F0004F40F4DD
:100A4000000020F07F4018BF404211F0004F41F4F9
:100A5000000121F07F4118BF494292EA030F3FD0C5
:100A6000A2F1010241FA03FC10EB0C00C3F12003D8
:100A700001FA03F100F0004302D5494260EB400067
:100A8000B0F5000F13D3B0F1807F06D340084FEAD2
:100A9000310102F10102FE2A51D2B1F1004F40EBC7
:100AA000C25008BF20F0010040EA0300704749002F
:100AB00040EB000010F4000FA2F10102EDD1B0FAFA
:100AC00080FCACF1080CB2EB0C0200FA0CF0AABFEF
:100AD00000EBC25052421843BCBFD040184370478D
:100AE00092F0000F81F4000106BF80F40000013293
:100AF000013BB5E74FEA41037FEA226C18BF7FEA6A
:100B0000236C21D092EA030F04D092F0000F08BFAB
:100B10000846704790EA010F1CBF0020704712F092
:100B20007F4F04D1400028BF40F00040704712F1D1
:100B300000723CBF00F50000704700F0004343F036
:100B4000FE4040F4000070477FEA226216BF08466C
:100B50007FEA23630146420206BF5FEA412390EA2F
:100B6000010F40F4800070474FF0000304E000BF25
:100B700010F0004348BF40425FEA000C08BF7047D6
:100B800043F0964301464FF000001CE050EA01029A
:100B900008BF70474FF000030AE000BF50EA0102AF
:100BA00008BF704711F0004302D5404261EB41019C
:100BB0005FEA010C02BF84460146002043F0B643C1
:100BC00008BFA3F18053A3F50003BCFA8CF2083AE6
:100BD000A3EBC25310DB01FA02FC634400FA02FCEF
:100BE000C2F12002BCF1004F20FA02F243EB0200F6
:100BF00008BF20F00100704702F1200201FA02FC58
:100C0000C2F1200250EA4C0021FA02F243EB02004A
:100C100008BF20EADC7070474FF0FF0C1CEAD0528E
:100C20001EBF1CEAD15392EA0C0F93EA0C0F6FD04F
:100C30001A4480EA010C400218BF5FEA41211ED02D
:100C40004FF0006343EA501043EA5111A0FB013119
:100C50000CF00040B1F5000F3EBF490041EAD371EE
:100C60005B0040EA010062F17F02FD2A1DD8B3F16A
:100C7000004F40EBC25008BF20F00100704790F0D9
:100C8000000F0CF0004C08BF49024CEA502040EA2B
:100C900051207F3AC2BFD2F1FF0340EAC2507047F1
:100CA00040F400004FF00003013A5DDC12F1190F2F
:100CB000DCBF00F000407047C2F10002410021FAA1
:100CC00002F1C2F1200200FA02FC5FEA310040F1B9
:100CD000000053EA4C0308BF20EADC70704792F032
:100CE000000F00F0004C02BF400010F4000F013A6A
:100CF000F9D040EA0C0093F0000F01F0004C02BF65
:100D0000490011F4000F013BF9D041EA0C018FE7D3
:100D10000CEAD15392EA0C0F18BF93EA0C0F0AD0D9
:100D200030F0004C18BF31F0004CD8D180EA0100FF
:100D300000F00040704790F0000F17BF90F0004F98
:100D4000084691F0000F91F0004F14D092EA0C0F7A
:100D500001D142020FD193EA0C0F03D14B0218BF0D
:100D6000084608D180EA010000F0004040F0FE4053
:100D700040F40000704740F0FE4040F440007047EF
:100D80004FF0FF0C1CEAD0521EBF1CEAD15392EA6E
:100D90000C0F93EA0C0F69D0A2EB030280EA010C5E
:100DA00049024FEA402037D04FF0805343EA1111F7
:100DB00043EA10130CF000408B4238BF5B0042F155
:100DC0007D024FF4000C8B4224BF5B1A40EA0C00FA
:100DD000B3EB510F24BFA3EB510340EA5C00B3EB2C
:100DE000910F24BFA3EB910340EA9C00B3EBD10F1A
:100DF00024BFA3EBD10340EADC001B0118BF5FEA6C
:100E00001C1CE0D1FD2A3FF650AF8B4240EBC25094
:100E100008BF20F0010070470CF0004C4CEA502055
:100E20007F32C2BFD2F1FF0340EAC250704740F4A4
:100E300000004FF00003013A37E792F0000F00F096
:100E4000004C02BF400010F4000F013AF9D040EA14
:100E50000C0093F0000F01F0004C02BF490011F4A8
:100E6000000F013BF9D041EA0C0195E70CEAD153A0
:100E700092EA0C0F08D142027FF47DAF93EA0C0F87
:100E80007FF470AF084676E793EA0C0F04D14B026B
:100E90003FF44CAF08466EE730F0004C18BF31F01D
:100EA000004CCAD130F000427FF45CAF31F0004317
:100EB0007FF43CAF5FE700BF4FF0FF3C06E000BFB0
:100EC0004FF0010C02E000BF4FF0010C4DF804CDD3
:100ED0004FEA40024FEA41037FEA226C18BF7FEAE3
:100EE000236C11D001B052EA530C18BF90EA010FE5
:100EF00058BFB2EB030088BFC81738BF6FEAE17074
:100F000018BF40F0010070477FEA226C02D15FEA0F
:100F1000402C05D17FEA236CE4D15FEA412CE1D07B
:100F20005DF8040B704700BF844608466146FFE742
:100F30000FB5FFF7C9FF002848BF10F1000F0FBD24
:100F40004DF808EDFFF7F4FF0CBF012000205DF81D
:100F500008FB00BF4DF808EDFFF7EAFF34BF0120A2
:100F600000205DF808FB00BF4DF808EDFFF7E0FF3B
:100F700094BF012000205DF808FB00BF4DF808ED8C
:100F8000FFF7D2FF94BF012000205DF808FB00BFEF
:100F90004DF808EDFFF7C8FF34BF012000205DF8D1
:100FA00008FB00BF42000ED2B2F1FE4F0BD34FF050
:100FB0009E03B3EB126209D44FEA002343F00043CF
:100FC00023FA02F070474FF00000704712F1610FF2
:100FD00001D1420202D14FF0FF3070474FF00000C4
:100FE000704700BF38B50E4B054618784FF47A733A
:100FF000B3FBF0F30B4A1068B0FBF3F000F092FB88
:10100000044658B90F2D09D8024629464FF0FF3043
:1010100000F046FB2046044B1D6038BD0120FCE774
:10102000000000201800002004000020074A08B536
:101030001368032043F01003136000F01FFB00202F
:10104000FFF7D0FF01F05CFF002008BD0020024048
:10105000034A044B11681B780B441360704700BFB0
:101060006000002000000020014B1868704700BF9E
:101070006000002038B50446FFF7F6FF0546631C04
:101080001EBF044B1B78E418FFF7EEFF401BA04285
:10109000FAD338BD0000002038B5044600286ED0D1
:1010A00090F820300BB901F04DFF2268136823F04F
:1010B00002031360FFF7D8FF054623685A689107BB
:1010C00051D41A6842F001021A60FFF7CDFF0546BD
:1010D00023685A68D20754D5227E0020012A1A6854
:1010E0000CBF42F0800222F080021A60627E012A68
:1010F0001A680CBF42F0400222F040021A60A27E41
:10110000012A1A680CBF42F0200222F020021A6065
:10111000E27E012A1A680CBF22F0100242F010028F
:101120001A60227F012A1A680CBF42F0080222F0DE
:1011300008021A60627F012A1A680CBF42F004029A
:1011400022F004021A60D4E902210A4321690A4309
:1011500061690A43616801390A43DA610123606207
:1011600084F8203038BDFFF77FFF401B0A28A4D940
:10117000636A43F400336362052384F8203001205E
:10118000F0E7FFF771FF401B0A28A1D9F0E790F8BC
:10119000203070B5013B012B5FD801240368D3F8E0
:1011A000002242F00102C3F800224A69D3F81C521F
:1011B00002F01F0004FA00F0C4432540C3F81C529B
:1011C000CD6985BBD3F80C52CE682540C3F80C52CC
:1011D0008D8803EBC20245EA0645C2F840528E688C
:1011E0000D8845EA0645C2F844528A696ABBD3F8BD
:1011F00004222240C3F804220A6952BBD3F8142205
:101200002240C3F814220A6A012A02BFD3F81C2222
:101210001043C3F81C020020D3F8002222F0010280
:10122000C3F8002270BD012DDFD1D3F80C520E6837
:101230000543C3F80C528D8803EBC20245EA06450C
:10124000C2F840528E688D89CBE7D3F8042202435E
:10125000D0E7D3F814220243D3E7436A43F4802350
:1012600043620120DEE738B590F820300446012BB8
:101270001FD10223026880F82030136823F0010395
:101280001360FFF7F1FE05462368586810F001006F
:1012900001D1606238BDFFF7E7FE401B0A28F3D991
:1012A000636A43F400336362052384F8203001202D
:1012B000F0E7436A43F400234362F8E7F0B590F89F
:1012C00020500668013D012DB46840D814F0E05F5D
:1012D00039D0C4F30164032C4FF0010505D1436AF2
:1012E00043F400034362012027E0A5401D60D1E9DB
:1012F000020704F1180308BB086847EA40501B01C5
:10130000F050086924013319C3F884010020097DD5
:101310003444012902BFD3F8841141F48071C3F829
:1013200084115168C4F88C111268C4F88821D3F86C
:10133000802142F00102C3F88021F0BD4D6838439E
:1013400040EAC500DBE7436A43F40013CAE7436A97
:1013500043F48023C6E7F0B590F82040013C012C0F
:101360006BD8066841B9F468A40707D1436A43F40F
:1013700000134362012055E03469F5E70C0135198B
:10138000D5F8B07107F004079760002F4BD1D5F85E
:10139000B0717F0D1760D5F8B071264407F00207D1
:1013A000D760D5F8B47107F00F071761D5F8B4719D
:1013B000D5F8B451C7F307272D0C97615561D6F8BE
:1013C000B8211A7002682244D2F8B821120A5A7061
:1013D00002682244D2F8B821120C9A7002682244A2
:1013E000D2F8B821120EDA7002682244D2F8BC2179
:1013F0001A7102682244D2F8BC21120A5A7102689A
:101400002244D2F8BC21120C9A7102681444D4F818
:10141000BC21120EDA71036851B9DA6842F0200279
:10142000DA600020F0BDD5F8B071FF085760B2E770
:101430001A6942F020021A61F3E7436A43F48023F9
:1014400097E790F82030013B012B05D80268002077
:101450005369194351617047436A43F480234362DF
:10146000012070477047704770477047704770475A
:1014700070477047704770477047704770472DE955
:10148000F84F036805465E69D3F8049016F001042E
:101490009F68D3F80CB0D3F810A0D3F8188022D0EE
:1014A00017F0010407D00122B9079A6040F1A38028
:1014B000FFF7D8FF0024FB0509D54FF480722B6895
:1014C000B8059A6040F1A5802846FFF7CCFFFB03E2
:1014D00009D54FF480322B68B8039A6040F1A78099
:1014E0002846FFF7C1FF330707D51BF0100F1FBFBA
:1014F00010222B6844F40074DA60770708D51BF0DB
:10150000080F05D008222B682846DA60FFF7B1FFE4
:10151000B00706D52B68DB68990702D02846FFF78D
:10152000A7FF720607D51AF0100F1FBF10222B68F5
:1015300044F480641A61B30608D51AF0080F05D088
:1015400008222B6828461A61FFF795FFF70606D593
:101550002B681B69980702D02846FFF78BFFB10361
:1015600008D519F0100F05D010222B6828465A60B4
:10157000FFF782FFF20308D519F0080F05D0082203
:101580002B6828465A60FFF778FF33042AD519F0F4
:10159000040F2A6824D0F70504D518F0010F18BFEE
:1015A00044F00104B00504D518F0020F18BF44F050
:1015B0000204710504D518F0040F18BF44F00404A8
:1015C00033050DD518F070030AD0302B4CD03CD821
:1015D000102B43D0202B44D0936923F070039361E8
:1015E000042353602CB16B6A28461C436C62FFF7DE
:1015F00045FFBDE8F88F7A0705D417F0080405D138
:10160000FFF733FF57E74FF4006454E74FF480547B
:1016100051E7790502D544F4005458E73A0502D55C
:1016200044F4804453E72846FFF720FF4FE779034F
:1016300002D544F4004456E73A0302D544F480341A
:1016400051E72846FFF713FF4DE7502B0FD0602BD3
:1016500010D0402BC0D144F04004BDE744F0080452
:10166000BAE744F01004B7E744F02004B4E744F0CC
:101670008004B1E744F48074AEE70000074A00023A
:10168000D36800F4E06023F4E0631B041B0C43F018
:10169000BF6343F400330343D360704700ED00E0C1
:1016A000174B70B5DC684FF0FF36C4F30224C4F169
:1016B0000705042D04F1040328BF0425062B98BF59
:1016C000002406FA05F388BF033C21EA0303A34084
:1016D00006FA04F422EA0404002843EA0403A8BF3B
:1016E00000F160404FEA0313B8BF064ADBB2ABBF5C
:1016F00000F5614000F00F0080F80033135470BD16
:1017000000ED00E014ED00E0002808DB01234209B1
:1017100000F01F0003FA00F0014B43F8220070476D
:1017200000E100E00138B0F1807F0AD2F021064BE1
:10173000064A586082F823100020072298601A6039
:1017400070470120704700BF10E000E000ED00E0AE
:101750002DE9F74F00242646654BDFF8A4C1DFF8DA
:10176000A4E10A6832FA06F502D103B0BDE8F08FB1
:101770004FF0010808FA06F802EA080290457ED107
:101780004D68122D00F0A98000F28280022D00F039
:10179000A18076D8002D00F08880012D00F098807F
:1017A0004FF00F09FF2A93BF824606F18045083D9E
:1017B000D0F800B092BFB500D0F804B0AD0009FA7F
:1017C00005F82BEA080804FA05F588BF00F1040AB9
:1017D00048EA0505CAF80050D1F804A01AF0805F65
:1017E0004DD0444F26F00308BD6908F1804845F00C
:1017F0000105BD61BD6908F5803805F00105019559
:1018000006F0030B019D4FEA8B0BD8F8085009FA3C
:101810000BF925EA0909384DA84263D005F5806522
:10182000A84261D005F58065A8425FD005F58065C6
:10183000A8420CBF0325042505FA0BF545EA090566
:10184000C8F808501D681AF4803F14BF154395432B
:101850001D605D681AF4003F14BF154395435D6039
:101860009D681AF4801F14BF154395439D60DD6881
:101870001AF4001F14BF2A4325EA0202DA60013677
:101880006FE7032D22D0112D8AD1CC68043487E76D
:101890001A4FBD4209D012D8DFF86C904D4504D0E4
:1018A00009F580394D457FF47BAF8C68C4B1012CBC
:1018B0000CBFC0F81080C0F81480082470E765459C
:1018C000F3D07545F1D0DFF84490EBE7002467E7EB
:1018D000CC6865E7CC68083462E7CC680C345FE715
:1018E00004245DE70025A7E70125A5E70225A3E776
:1018F00000040140001002400008014000002110D7
:101900000000311000003210000011100000221001
:101910000AB1016170470904FBE700002DE9F341BA
:10192000054608B901203CE00368DB0710D42B68AA
:101930009F075DD42B68190700F194802B685A0724
:1019400000F1BE80E869002840F02C81002028E0EA
:101950008F4C636803F00C03042B07D0636803F01B
:101960000C03082B09D16368DE0306D523689C03AA
:10197000DDD56B68002BDAD1D4E76B68B3F5803F17
:1019800012D1236843F480332360FFF76DFB0646D2
:1019900023689803CBD4FFF767FB801B6428F7D933
:1019A000032002B0BDE8F0819BB9236823F48033A3
:1019B0002360236823F480232360FFF755FB06464A
:1019C00023689903B3D5FFF74FFB801B6428F7D931
:1019D000E6E7B3F5A02F236803D143F48023236007
:1019E000CFE723F480332360236823F48023CBE7FD
:1019F000674C636813F00C0F07D0636803F00C03A7
:101A0000082B10D16368DA030DD423689B0702D535
:101A10002B69012B86D123686A6923F0F80343EA16
:101A2000C203236086E72A695A4B6AB101221A6011
:101A3000FFF71AFB064623689F07ECD4FFF714FB59
:101A4000801B0228F7D9ABE71A60FFF70DFB0646AB
:101A5000236898077FF56EAFFFF706FB801B02280F
:101A6000F6D99DE7AA694A4C4B4BDAB101221A60BC
:101A7000FFF7FAFA0646636A9B070DD54FF4FA5250
:101A8000464B1B68B3FBF2F3019300BF019B5A1E48
:101A90000192002BF9D151E7FFF7E6FA801B0228EB
:101AA000E9D97DE71A60FFF7DFFA0646636A9F0708
:101AB0007FF544AFFFF7D8FA801B0228F6D96FE70D
:101AC000334CE369D80024D40127E36943F0805301
:101AD000E361E36903F080530093009B304E336869
:101AE000D90518D5EB68012B26D1236A43F00103F1
:101AF0002362FFF7B9FA41F288368046236A9B07D2
:101B00003FD5002F3FF41EAFE36923F08053E3611C
:101B100018E70027E2E7336843F480733360FFF788
:101B2000A3FA80463368DA05DCD4FFF79DFAA0EB10
:101B300008006428F6D933E7ABB9236A41F2883844
:101B400023F001032362236A23F004032362FFF7D7
:101B50008BFA0646236A9807D3D5FFF785FA801BD0
:101B60004045F7D91CE7052B236A03D143F0040352
:101B70002362BAE723F001032362236A23F00403FC
:101B8000B6E7FFF771FAA0EB0800B042B6D907E755
:101B9000001002400000424280044242180000202F
:101BA000007000402A4B5A681C4602F00C02082ABA
:101BB0003DD00023274E022833602BD1FFF754FA83
:101BC0000746236899011FD42B6AB3F5803F05D1DE
:101BD0006268A96822F400320A436260696A626836
:101BE0000B4322F474121343636001233360FFF745
:101BF0003BFA054623689A013FF5A8AEFFF734FA91
:101C0000401B0228F6D9CBE6FFF72EFAC01B0228AC
:101C1000D7D9C5E6FFF728FA054623689B017FF56B
:101C200095AEFFF721FA401B0228F6D9B8E6012845
:101C30003FF4B7AE58682B6A00F480329A427FF4C2
:101C400071AE6B6A00F47010C01A18BF0120A8E6CC
:101C5000001002406000424230B51A4B87B002AC1F
:101C600003F11005224618685968083303C2AB42D5
:101C70001446F7D140F201231349ADF804304B6804
:101C800003F00C02042A1BD0082A02D00F4807B028
:101C900030BDC3F3834206A80244DB0312F8102CC4
:101CA0000BD54B680A48C3F34043504306AA13447C
:101CB00013F8143CB0FBF3F0E9E706485043E6E7BD
:101CC0000348E4E7203200080010024000127A00C6
:101CD0000024F40000093D002DE9F0410D460446C2
:101CE00010B90120BDE8F081444A136803F00703EE
:101CF0008B4228D321688E0730D4CA0743D43F4A89
:101D0000136803F00703AB4265D822683C4D12F01C
:101D1000040F6CD1130706D56B68226923F4605356
:101D200043EAC2036B60FFF797FF6B68354AC3F362
:101D30000313D35CD840344B1860344B1868FFF75A
:101D400051F90020CEE7136823F007030B4313601B
:101D5000136803F007038B42C3D1CBE7284B11F084
:101D6000040F1EBF5A6842F4E0625A60080742BF7F
:101D70005A6842F460525A605A68A06822F0F00231
:101D800002435A60B9E762681D4E012A33681AD1CE
:101D900013F4003FA5D0736841F2883823F00303A1
:101DA00013437360FFF760F907467368626803F0D6
:101DB0000C03B3EB820FA2D0FFF756F9C01B4045CE
:101DC000F3D903208EE7022A02D113F0007FE1E766
:101DD00013F0020FDEE7136823F007032B431360B1
:101DE000136803F00703AB427FF47BAF8DE76B68AA
:101DF000E16823F4E0630B436B608BE70020024053
:101E000000100240303200081800002004000020BA
:101E1000036A70B523F001030362036A44688269B0
:101E20000D6822F073022A438D6823F002032B43CE
:101E30000A4DA8420BD1CD6823F008032B4324F4AC
:101E40004074D1E90556354323F004032C43446024
:101E500082614A684263036270BD00BF002C01408A
:101E6000036A70B523F480730362036A4468C2692D
:101E70000D6822F073022A438D6823F4007343EA4D
:101E800005230B4DA8420DD1CD6823F4006343EA2E
:101E9000052324F44054D1E90556354323F48063E7
:101EA00044EA05144460C2614A68C263036270BDBB
:101EB000002C0140036A30B523F480530362036AA7
:101EC0004468C2690D6822F4E64242EA05228D6840
:101ED00023F4005343EA0533064DA84202BF4D697F
:101EE00024F4804444EA85144460C2614A68026470
:101EF000036230BD002C014070470C2914D8DFE884
:101F000001F0071313130A1313130D131313100007
:101F10000368586B70470368986B70470368D86B09
:101F200070470368186C704700207047704770470F
:101F300070477047036810B51A69044691070ED5BB
:101F4000DA6892070BD56FF002021A6101229B69D1
:101F500002779B0777D000F089FB00232377236863
:101F60001A69500710D5DA6851070DD56FF00402D1
:101F70001A6102229B69227713F4407F204668D0C1
:101F800000F074FB0023237723681A6912070FD52A
:101F9000DA6810070CD56FF008021A610422DB69B9
:101FA0002277990720465AD000F060FB0023237760
:101FB00023681A69D20610D5DA68D0060DD56FF0FD
:101FC00010021A610822DB69227713F4407F204651
:101FD0004BD000F04BFB0023237723681A69D1070D
:101FE00008D5DA68D20705D56FF0010220461A61DC
:101FF000FFF79CFF23681A69100608D5DA681106F6
:1020000005D56FF0800220461A6100F00FFB2368AF
:102010001A69520608D5DA68500605D56FF04002F5
:1020200020461A61FFF785FF23681A69910622D5B9
:10203000DA6892061FD56FF020022046BDE81040F6
:102040001A6100F0F2BAFFF772FF2046FFF770FF47
:1020500083E7FFF76CFF2046FFF76AFF92E7FFF781
:1020600066FF2046FFF764FFA0E7FFF760FF20460A
:10207000FFF75EFFAFE710BD1A4A036890420AD02F
:10208000B0F1804F07D0A2F59432904203D002F510
:102090008062904215D14A6823F070031343114ABD
:1020A00090420AD0B0F1804F07D0A2F5943290420E
:1020B00003D002F58062904203D1CA6823F44073D2
:1020C00013434A6923F08003134303608B68C362A0
:1020D0000B688362034B984204BF0B6903630123BF
:1020E00043617047002C014010B50446A0B190F840
:1020F0003D3003F0FF021BB980F83C2000F062FF86
:102100000223206884F83D30211DFFF7B5FF01232D
:10211000002084F83D3010BD0120FCE710B50446D6
:10212000A0B190F83D3003F0FF021BB980F83C20CD
:10213000FFF7E2FE0223206884F83D30211DFFF7FF
:102140009BFF0123002084F83D3010BD0120FCE7F7
:1021500010B50446A0B190F83D3003F0FF021BB962
:1021600080F83C2000F040FF0223206884F83D30D6
:10217000211DFFF781FF0123002084F83D3010BDB1
:102180000120FCE7036A70B523F010030362036AC1
:10219000446882690D6822F4E64242EA05228D68AD
:1021A00023F0200343EA05130B4DA8420DD1CD685F
:1021B00023F0800343EA051324F44064D1E9055673
:1021C000354323F0400344EA8504446082614A6851
:1021D0008263036270BD00BF002C014038B590F8E7
:1021E0003C300446012B4FF0020025D0012384F837
:1021F0003D0084F83C300C2A18D8DFE802F00717BD
:1022000017171E1717172F17171740002068FFF70B
:10221000FFFD236809699A6942F008029A619A6988
:1022200022F004029A619A690A439A61012300200C
:1022300084F83D3084F83C0038BD2068FFF7A2FFE9
:10224000236809699A6942F400629A619A6922F4E2
:1022500080629A619A6942EA0122E6E72068FFF704
:10226000FFFD23680969DA6942F00802DA61DA6978
:1022700022F00402DA61DA690A43DA61D6E72068FB
:10228000FFF718FE23680969DA6942F40062DA612F
:10229000DA6922F48062DA61DA6942EA0122ECE763
:1022A00070B5046A124E24F001040462B0428469DD
:1022B000056A19D0B0F1804F16D0A6F59436B04219
:1022C00012D006F58066B0420ED044F001021B0128
:1022D000DBB222F0F0021A4301F00A0125F00A03F2
:1022E00019438261016270BD24F003042243EEE7CA
:1022F000002C0140F8B590F83C300446012B0D4607
:1023000017464FF0020019D006C9012384F83D009A
:1023100084F83C302068EB688FB9FFF7C1FF236871
:10232000A9689A6922F00C029A619A690A439A6133
:102330000123002084F83D3084F83C00F8BD042FD0
:10234000AE68056A1ED125F01005056285691B037C
:1023500025F44075076A45EA02229BB222F47042D6
:1023600009011A4301F0A00127F0A003194382617B
:102370000162836923F440638361836943EA06262B
:102380008661D5E7082F1CD125F480750562C569E3
:102390001B0125F00305076A2A43DBB222F0F00295
:1023A00009021A4301F4007127F400731943C26152
:1023B0000162C36923F00C03C361C3691E43C66194
:1023C000B6E725F480550562C5691B0325F4407501
:1023D000076A45EA022222F470429BB209031343C2
:1023E00001F4005127F400521143C3610162C36933
:1023F00023F44063C361C36943EA0626DFE710B5EF
:1024000084680A4324F47F4442EA0323234383601D
:1024100010BD90F83C3070B5012B04464FF002001F
:1024200019D0012384F83D00206884F83C3083688B
:1024300023F47F4323F0770383600B68402B65D040
:1024400015D8102B0CD007D853B10123002084F8E5
:102450003D3084F83C0070BD202B01D0302BF4D1EE
:10246000826843F0070322F0700213431AE0602BE6
:1024700034D019D8502BE8D14A68CE68016A056A71
:1024800021F00A0125F00105056283690A4323F062
:10249000F00343EA061383610262836823F070034A
:1024A00043F057038360D0E7702B0CD0B3F5005F87
:1024B000CBD1CB68D1E90121FFF7A1FF2268936856
:1024C00043F4804308E0CB68D1E90121FFF797FF8F
:1024D0002268936843F077039360B6E74D68CE684F
:1024E000016A21F0100101628269036A22F47042DC
:1024F00023F0A00343EA051342EA06328261036235
:10250000836823F0700343F06703CBE74A68CE6823
:10251000016A056A21F00A0125F001050562836957
:102520000A4323F0F00343EA0613836102628368DF
:1025300023F0700343F04703B4E710B50124036AA6
:1025400001F01F018C4023EA04030362036A8A40FE
:102550001A43026210BD000010B504460122006853
:10256000FFF7EBFF2368094A0020934202BF5A6C31
:1025700042F400425A649A6802F00702062A1EBF1B
:102580001A6842F001021A6010BD00BF002C014021
:10259000FFF7E2BF10B5044600680C290CD8DFE84D
:1025A00001F0070B0B0B1A0B0B0B1E0B0B0B220076
:1025B000C36843F00203C3600122FFF7BEFF236834
:1025C00000209A6802F00702062A1EBF1A6842F02D
:1025D00001021A6010BDC36843F00403EBE7C3684F
:1025E00043F00803E7E7C36843F01003E3E790F81C
:1025F0003C3030B5012B4FF0020314D0046880F852
:102600003D306268A3680D68496822F0700223F0CB
:1026100080030B432A436260A360012380F83D30AE
:10262000002380F83C30184630BD704770470000EA
:1026300010B50B4C00224FF480712046FFF768F96B
:1026400000224FF400712046FFF762F94FF08043FB
:1026500096221A640023034A1370034A137010BDB4
:10266000000C01404C0000204D000020034A03688C
:10267000934204BF00225A62704700BF000400402A
:1026800010B590B01022002109A800F0B5FD142269
:10269000002101A800F0B0FD022401224FF4803394
:1026A0004FF40031CDE90623CDE90D434FF4E0139B
:1026B00006A808910A920F93FFF730F90F234FF401
:1026C0008062CDE901340023214601A8CDE903321F
:1026D0000593FFF701FB10B010BD000000000000E3
:1026E0002DE9804800244FF001084FF002094FF017
:1026F000040B93B0FEF79AFCFFF7C2FF10220021F3
:102700000BA800F079FDC64B04219A69C54842F038
:1027100020029A619A694FF0804A02F020020292E8
:10272000029A9A69C04E42F004029A619A69BF4FB8
:1027300002F004020392039A9A69BD4D42F0080226
:102740009A619B69002203F008030493049BFFF73E
:10275000DFF800224FF4FE41B648FFF7D9F80BA985
:10276000B048CDE90D49CDE90BB8FEF7F1FF4FF4C4
:10277000FE430BA9AF48CDE90B38CDE90D49FEF773
:10278000E7FF2146102207A800F036FD1C22214653
:102790000BA8CDE9054400F02FFD0823C6E900A3EE
:1027A00040F2E7333046C6E90334B460B461FFF762
:1027B0009BFC4FF4805307A930460793FFF729FE8F
:1027C0003046FFF7ABFC05A93046CDE90544FFF7DD
:1027D0000EFF60230C220BA93046CDE90B340D947B
:1027E0000F94FFF7FBFC304600F032FC214610222C
:1027F0000BA8CDE9074400F0FFFC48238E4A384679
:10280000C7E900234FF6FF73BC60C7E90334BC611E
:10281000FFF79EFC07A93846CDE90744FFF7E7FE1E
:102820000F230C220BA93846CDE90B480D940E93CB
:10283000FFF760FD814B2846C5E9003B4FF4C023FC
:10284000C5E90244C5E904342C766C76AC76EC76A6
:102850002C776C77FEF720FC0C213846FFF79AFEA8
:102860000C213046FFF794FE424659466D48FFF76B
:102870004FF8734A734B1268C3E902441A60C3F8F5
:102880001090714B71491B6828465B01C1E9003407
:102890000C61C1E90244C1E90684C1F82080FEF759
:1028A00076FC2846FEF7DFFC49462846FEF7C9FDC0
:1028B0003220FEF7DFFBDC230024CAF840304FF063
:1028C00080431A6CB2F57A7F80F07082604B0021F1
:1028D0001E683046FEF75CFB002800F0F3805D4F79
:1028E0003D78022D40F0658200224FF480715148FE
:1028F000FFF70EF801224FF400714E48FFF708F879
:102900000123DFF878B1544DCBF800602B703046CE
:10291000FDF782FD3EA3D3E90023FEF75BF8002814
:102920005FD00C214148FFF7E8FA4C4BDFF85081AB
:1029300018604B4B1B685843FEF716F94949FEF7E0
:102940001FFA494B0146186081464FF07E50FEF752
:1029500017FA4649C8F80000FEF75EF9FEF722FBB9
:10296000434BC6B21E7021464846FEF7E9FA08B14D
:10297000C8F80040D8F800A05046FDF74DFD80464D
:10298000DBF800008946FDF747FD23A3D3E90023C8
:10299000CDE90001FDF798FD02460B464046494649
:1029A000FEF704F8002876D021465046FEF7C8FA14
:1029B000002870D14FF0804340F2EE22196C914212
:1029C00088BF1A641A6C01321A642A4A2B781D498E
:1029D00053701748284B1670FEF770FC0320FEF763
:1029E00049FB02233B70FEF73FFB1423B0FBF3F2DD
:1029F00002FB1300002849D11D4B1E4A1B781149C8
:102A00001370154B0A481B783CE000BFAFF3008001
:102A10009A9999999999B93F2B8716D9CEF7EF3F93
:102A20000010024000080140FC000020B800002017
:102A300058010020000C01400004004000640040E8
:102A40000C0000208001002008000020640000200D
:102A500054000020420000204D00002044000020CF
:102A6000140000200024744950000020000070422F
:102A70004C00002040000020F80000205C000020F6
:102A8000480000205370A84BFEF718FCA74B1A68AB
:102A9000A74B1A6013E7A0A3D3E90023DDE90001E7
:102AA000FDF712FD02460B4640464946FDF79CFFE6
:102AB000002896D04FF080431A6C002A85D01A6CFB
:102AC000013A81E721463046FEF744FA002800F03B
:102AD000A080DFF89C8298F80020022A40F07181E3
:102AE000DFF890A2934D2868FDF796FC8CA3D3E9FC
:102AF0000023FDF76FFF28B9FFF79AFD012388F83F
:102B0000003070E700224FF480718B48FEF700FF21
:102B100001224FF400718848FEF7FAFEDFF858B240
:102B2000864B874ECBF8003001230C21854833704B
:102B3000FFF7E3F9844B1860844B1B685843FEF79A
:102B400013F85146FEF71CF9814B01461860814687
:102B50004FF07E50FEF714F97E492860FEF75CF8CE
:102B6000FEF720FA7C4BC7B21F7021464846FEF79D
:102B7000E7F900B12C60DBF800902D6877494846F2
:102B8000FEF74AF82946FEF703FAE0B12146284647
:102B9000FEF7D6F9B8B94FF0804340F2EE22196C37
:102BA000914288BF1A641A6C01321A646C4A3378F5
:102BB0006C4953706C485C4B1770FEF77FFB032029
:102BC000FEF758FA8EE769494846FEF725F80146B0
:102BD0002846FEF7DDF9002884D04FF080431A6CB8
:102BE000002AE3D01A6C013ADFE760494046FEF75D
:102BF00013F801463846FEF7CBF9002800F0528161
:102C00004FF080431A6C002A00F040811A6C013AA0
:102C10003BE121463046FEF7BBF9002800F0C380B7
:102C2000DFF84C8198F80030012B40F0BC80DFF8D1
:102C300044A1404D2868FDF7EFFB39A3D3E90023F9
:102C4000FDF7C8FE18B9FFF7F3FC022357E701228E
:102C50004FF480713848FEF75BFE00224FF400719C
:102C60003548FEF755FEDFF814B1344B344ECBF83F
:102C7000003002230C2133483370FFF73EF9324B0A
:102C80001860324B1B685843FDF76EFF5146FEF744
:102C900077F82F4B0146186081464FF07E50FEF7C3
:102CA0006FF82C492860FDF7B7FFFEF77BF92A4B38
:102CB000C7B21F7021464846FEF742F900B12C60AA
:102CC000DBF800902D6825494846FDF7A5FF294609
:102CD000FEF75EF9002853D021462846FEF730F96A
:102CE00000284DD14FF0804340F2EE22196C914202
:102CF00088BF1A641A6C01321A64194A3378194968
:102D000053701948084B1770FEF7D8FA0320FEF7E6
:102D1000B1F98EE7AFF300806ABC74931804F03FFA
:102D20009A9999999999B93FF80000205400002088
:102D30001000002048000020000C0140CDCCCC3D0C
:102D40004D000020B80000204400002014000020A6
:102D500050000020000070424C00002077BE7F3FF2
:102D6000400000208001002058010020C520803F45
:102D700042000020002474495C000020580000201C
:102D80004D494846FDF748FF01462846FEF700F941
:102D900000283FF44EAF4FF080431A6C002AACD0AD
:102DA0001A6C013AA8E7FFF743FC1CE600221A64FC
:102DB00085E521463046FEF7CDF800283FF429AFDF
:102DC0002A46012AEFD14FF480713C48FEF7A0FD5E
:102DD00000224FF400713948FEF79AFD0223DFF814
:102DE0001C91374D06F100462B70C9F80060304643
:102DF000FDF712FB2EA3D3E90023FDF7EBFD00281E
:102E000050D00C212F48FFF778F82F4B2F4F186028
:102E10002F4B1B685843FDF7A7FE2E49FDF7B0FF67
:102E20002D4B0146186080464FF07E50FDF7A8FFFD
:102E30002A493860FDF7F0FEFEF7B4F8284BC6B219
:102E40001E7021464046FEF77BF800B13C60D9F881
:102E500000803F6823494046FDF7DEFE3946FEF715
:102E600097F800283FF4C1AE21463846FEF768F8CF
:102E700000287FF4BAAE4FF0804340F2EE22196C86
:102E8000914288BF1A641A6C01321A64164A2B7870
:102E9000164953701648174B1670FEF70FFA0320A9
:102EA000FEF7E8F80122144B1A709CE5AFF300809E
:102EB0009A9999999999B93FC520803F000C014092
:102EC0004D000020B80000204400002048000020F1
:102ED00014000020002474495000002000007042BB
:102EE0004C00002077BE7F3F400000208001002082
:102EF00058010020F8000020420000205800002067
:102F00000E4B82B09A6942F001029A619A6902F00E
:102F100001020092009ADA6942F08052DA61DB69BC
:102F2000074A03F080530193019B536823F0E06349
:102F300043F08063536002B0704700BF001002404E
:102F40000000014010B5044686B01022002102A8FE
:102F500000F052F92268194B9A422DD103F5D6336D
:102F6000DA6902A942F00072DA61DA69144802F003
:102F700000720092009A9A6942F004029A619B6979
:102F800003F004030193019B4FF400630293FEF7E7
:102F9000DFFB4FF480520223CDE90223032302A971
:102FA00007480593FEF7D4FB002214201146FEF7D4
:102FB00077FB1420FEF7A8FB06B010BD00640040AC
:102FC00000080140036882B0B3F1804F0AD103F5D5
:102FD0000433DA6942F00102DA61DB6903F00103CC
:102FE0000193019B02B0704710B5044686B01022D1
:102FF000002102A800F000F92268134B9A4221D167
:1030000003F50333DA6902A942F00202DA61DA69F0
:103010000E4802F002020092009A9A6942F00802F9
:103020009A619B6903F008030193019B02230293B9
:10303000FEF78EFB00221D201146FEF731FB1D20FE
:10304000FEF762FB06B010BD00040040000C01401A
:1030500010B5044686B01022002102A800F0CCF87A
:103060002368B3F1804F13D103F504339A6902A9A1
:1030700042F004029A619B69082203F00403019361
:10308000019B02230348CDE902230593FEF760FB71
:1030900006B010BD000801407047FEE7FEE7FEE7FE
:1030A000FEE7704770477047FDF7D2BF10B5114C6F
:1030B0001148FEF7E4F92346104A00210E48FEF7B6
:1030C0004AF923780E4A137053B96078FDF750FD22
:1030D0000C49FDF755FE00F100400B4B186010BD88
:1030E000012BFCD16078FDF743FD0649FDF748FE52
:1030F000F3E700BF38000020580100203C01002009
:103100008C00002000007042540000200148FEF7AF
:1031100011BF00BFB80000200F4B1A6842F0010237
:103120001A6059680D4A0A405A601A6822F084727F
:1031300022F480321A601A6822F480221A605A68D7
:1031400022F4FE025A604FF41F029A604FF00062B0
:10315000034B9A60704700BF001002400000FFF868
:1031600000ED00E0002103E00B4B5B5843500431BD
:103170000A480B4B42189A42F6D30A4A02E000234F
:1031800042F8043B084B9A42F9D3FFF7C5FF00F021
:103190000FF8FFF7A5FA704748320008000000203A
:1031A0001C0000201C00002098010020FEE7000009
:1031B00070B500250C4E0D4CA41BA410A54209D1DE
:1031C00000F022F800250A4E0A4CA41BA410A542C8
:1031D00005D170BD56F8253098470135EEE756F811
:1031E000253098470135F2E74032000840320008A8
:1031F000403200084432000803460244934200D1A2
:10320000704703F8011BF9E7F8B500BFF8BC08BC2C
:103210009E467047F8B500BFF8BC08BC9E46704794
:1032200002030405060708090A0B0C0D0E0F101007
:103230000000000000000000010203040607080966
:04324000350100084C
:04324400110100086C
:1032480001000000100000003F0000003A000000EC
:0C3258000000803F2B02000000A24A048E
:040000050800316559
:00000001FF
